:020000040800F2
:10000000308B0020E1010008D52000080719000806
:1000100079200008570B00086B370008000000002B
:10002000000000000000000000000000490100087E
:10003000BD0B0008000000008D010008BD2D000868
:10004000FB010008FB010008D12E0008FB0100089D
:10005000FB010008FB010008FB010008FB01000890
:10006000FB010008FB010008FB010008FB01000880
:10007000FB010008FB010008FB010008FB01000870
:10008000FB010008FB010008FB010008FB01000860
:10009000FB010008FB010008FB0100082D0C000813
:1000A000FB010008FB010008FB010008FB01000840
:1000B000FB010008FB010008ED2F0008FB01000810
:1000C000FB010008FB010008FB010008FB01000820
:1000D000FB01000815350008FB010008FB010008C2
:1000E000FB010008FB010008FB010008FB01000800
:1000F000FB010008FB010008FB010008FB010008F0
:10010000FB010008FB010008FB010008FB010008DF
:10011000FB010008FB010008FB010008FB010008CF
:10012000FB010008FB010008FB010008FB010008BF
:10013000DFF810D000F060FC004800475142000892
:10014000AFF30080308B0020224B19680868B0E8BC
:10015000F00F80F30988BFF36F8F4FF0000080F33A
:1001600011884EF00D0E7047000000000648006830
:10017000006880F3088862B661B6BFF34F8FBFF3A3
:100180006F8F00DF00BF00BF08ED00E0EFF30980D4
:10019000BFF36F8F0F4B1A6820E9F00F106008B59E
:1001A0004FF0BF0080F31188BFF34F8FBFF36F8F05
:1001B00004F094FC4FF0000080F31188BDE8084083
:1001C00019680868B0E8F00F80F30988BFF36F8FF3
:1001D000704700BF58000020EFF305807047000013
:1001E0000648804706480047FEE7FEE7FEE7FEE7D1
:1001F000FEE7FEE7FEE7FEE7FEE7FEE71D2E00084E
:1002000031010008D2B201E000F8012B491EFBD2F7
:1002100070470022F6E710B513460A460446194611
:10022000FFF7F0FF204610BDF0B480EA0102D40FC2
:100230004200B2EB410F02D20246084611464A0084
:1002400042D0C30DDDB2C1F3C752AD1A202D35DA4D
:10025000C1F3160141F4000204B15242C5F1200677
:1002600002FA06F12A411044B3EBD05F23D0C4B1A7
:10027000012DA0EBC35009DCF0BC4FF0004202EAB4
:10028000C352DBB200F5000000F055BA400000F1A7
:10029000807000EBC350A0F1807040EAD17049003B
:1002A00009E0490841EAC071A0EBC35000F5000025
:1002B000400800EBC350F0BC00F034BA61420122A8
:1002C00002EB4101001BF6E7F0BC704781F00041F2
:1002D000AAE780F00040A7E780EA010210B502F02B
:1002E0000043400022D04A001FD0010E01EB1261F2
:1002F000C0F35600C2F3560240F4000042F400027C
:10030000A0FB022000047F39140400D0401C50EAF6
:10031000124001D44000491EC2B20C0604EBD010BA
:10032000401C4008802A02D003E0002010BD20F0CD
:100330000100002900DA0020184310BD30B480EA23
:10034000010202F0004530F0004221F0004013D0DD
:1003500090B1C30DD40DC2F31601C0F31600E41A18
:1003600041F4000140F400027D34914201D3641C49
:1003700000E04900002C02DA30BC002070474FF446
:1003800000000023914201D3891A034340084FEA39
:100390004101F7D151B1914202D14FF0004105E046
:1003A00002D24FF0010101E06FF0010103EBC450F4
:1003B000284430BC00F0B6B92DE9FE4F81EA0304B1
:1003C00004F0004421F0004100944FF0000B23F0B2
:1003D000004350EA01045ED052EA03045BD0C3F349
:1003E0000A54C1F30A552C44A4F2F3340194A0FB3F
:1003F0000254C1F3130141F48011C3F3130343F416
:10040000801301FB024400FB034E840A970A44EA6E
:10041000815447EA8357A4FB076802958D0A05FBC0
:1004200007854FEA932C04FB0C542705029D4FEAE5
:10043000065847EA1637B5EB08056EEB070C870E32
:10044000920E47EA811742EA8312A7FB0201B6EB3C
:100450000B0164EB00042B0D43EA0C335E1844EBF4
:100460001C50DA465146E7FB0201C5F313044FEA7C
:100470000B3343EA14534FEA0432019C43EA060368
:10048000A4F10C040294009CCDE900B400F090F9B2
:1004900003B0BDE8F08F00200146F9E72DE9F04DEB
:1004A00081EA030404F0004B21F0004514464FF0AC
:1004B000000A23F0004150EA050220D054EA01026C
:1004C0001DD0C5F30A570246C5F31303C1F3130049
:1004D000C1F30A5640F4801543F48013A7EB0608D5
:1004E000101BD64608F2FD3873EB050002D308F165
:1004F000010801E092185B41B8F1000F03DA002017
:100500000146BDE8F08D00204FF480110646844678
:100510000EE0171B73EB050705D3121B63EB0503F6
:1005200006434CEA010C49084FEA300092185B413F
:1005300050EA0107EDD152EA030012D082EA04002A
:1005400083EA0501084305D0101BAB4106D2012206
:10055000002306E000224FF0004302E06FF00102AA
:1005600053101AEB06004CEB085110EB0A0041EB5C
:100570000B01BDE8F04D00F00CB9C10F80EAE0704E
:100580000844CA079623002100F0D5B8962300221C
:10059000114600F0D0B80EB5C10F80EAE0700844F3
:1005A000CA07002140F233438DE80E000A460B468D
:1005B00000F0FEF803B000BD00F0004220F0004063
:1005C000C10DC0F3160040F400007F2901DA0020BD
:1005D0007047962903DCC1F19601C84001E09639C5
:1005E0008840002AF4D04042704720F00040C10DFE
:1005F000C0F3160040F400007F2901DA00207047A4
:10060000962903DCC1F19601C840704796398840AD
:10061000704770B5C1F30A5201F000450024C1F3E0
:10062000130140F2FF3341F480119A4201DA0020B5
:1006300070BD40F233439A42A2F2334203DC52428D
:1006400000F060F800E090402C43F1D0404270BDD3
:1006500000F0004230F000400AD0C10D01F5607199
:10066000C0F3160042EA0151C20840071143704727
:1006700000200146704701F0004330B421F00041F2
:1006800050EA010206D00A0DA2F56072C1F313010F
:10069000002A02DC30BC00207047440F44EAC10449
:1006A000C100E01830BC00EBC25000F03BB80000C5
:1006B000002801DBC0F10040002901DBC1F100414D
:1006C00081427047002801DBC0F10040002901DBB6
:1006D000C1F100418842704730B50B460146002009
:1006E0002022012409E021FA02F59D4205D303FAF4
:1006F00002F5491B04FA02F52844151EA2F1010275
:10070000F1DC30BD202A04DB203A21FA02F000217E
:10071000704721FA02F3D040C2F120029140084311
:10072000194670470029A8BF7047401C490008BF00
:1007300020F00100704710B4B0FA80FC00FA0CF011
:1007400050EA010404BF10BC704749B1CCF1200449
:1007500021FA04F411FA0CF118BF012121430843D6
:10076000A3EB0C01CB1D4FEA00614FEA102042BF02
:10077000002010BC704700EBC35010440029A4BFF8
:1007800010BC7047401C490008BF20F0010010BC9D
:10079000704710B5141E73F1000408DA401C41F1D3
:1007A000000192185B411A4301D120F0010010BDF5
:1007B0002DE9F04D92469B4611B1B1FA81F202E06B
:1007C000B0FA80F22032904600F028F904460F4635
:1007D00040EA0A0041EA0B0153465A46084313D047
:1007E000114653EA010019D0C8F140025046FFF704
:1007F00089FF05460E4650465946424600F00EF91E
:10080000084305D0012004E020463946BDE8F08DBC
:100810000020054346EAE0762C4337430A986305F7
:10082000E40AA0EB08000022FD0A44EA47540A301B
:1008300002D500200146E9E7010510196941DDE90B
:10084000084500196941BDE8F04DA2E72DE9FE4FCA
:10085000804681EA0300C00F0C46009021F0004161
:1008600023F00045B8EB0200A94105D240462146DD
:1008700090461C460B46024623F00040104347D0EA
:10088000270DC7F30A00C3F30A510290401A0190E2
:1008900040286BDAC3F3130040F4801B00989246A3
:1008A00020B10023D2EB030A63EB0B0B01985946EE
:1008B000C0F14002504600F0B1F806460D465046E1
:1008C0005946019A00F0B9F810EB08006141002484
:1008D00087EA115284EAE7731A4340D0009A62B360
:1008E000019A012A4FEA075215DC001B61EB020155
:1008F0004FF0004202EA0752CDE90042001C41F5E8
:10090000801132462B46FFF753FF03B0BDE8F08F4E
:1009100040462146F9E7001B61EB0201001C41F54E
:10092000801300185B412018A2F5001747EB030164
:1009300040EAD570B6196D4111E06D084FEA3606F0
:1009400045EAC0754FEA0752001B61EB0201001C2B
:1009500041F5801149084FEA3000001951413246F3
:100960002B4603B0BDE8F04FFFF713BF00980122FC
:1009700040000023D0EB020263EBE07300982146B5
:100980004FEAE074B8EB000061EB0401E9E783F0A3
:1009900000435BE781F0004158E770B521F0004368
:1009A00003430CD0C1F30A550024D5EB040564EBD6
:1009B0000403D617AD1AB34102DB0020014670BD17
:1009C000201841EB025170BD30B5041E71F10004D6
:1009D00004DB4FF00044404264EB0101141E73F14C
:1009E000000405DB1C464FF00043524263EB040356
:1009F0008B4208BF824230BD064C074D06E0E068DE
:100A000040F0010394E8070098471034AC42F6D355
:100A1000FFF792FB1850000838500008202A04DB2A
:100A2000203A00FA02F1002070479140C2F1200301
:100A300020FA03F3194390407047202A06DBCB17B6
:100A4000203A41FA02F043EAE07306E041FA02F389
:100A5000D040C2F1200291400843194670472DE969
:100A6000F04D00231A461B1A8A4103DB0020014681
:100A7000BDE8F08DC1F30A52C1F3130141F48015B2
:100A80004FF0000BD10702D100186D41521E002714
:100A9000044640F2FF11384601EB620A3E468046AA
:100AA000024600204FF48011FFF72CFEC21971415D
:100AB000BB1846EB0100B4EB030C75EB000C04D340
:100AC000E41A65EB000517460E46241908F10100EB
:100AD0006D4180463428E3DDF91946EB0600091B19
:100AE000A84103D24FF0FF32134601E00022134623
:100AF0001BEB070046EB0A51BDE8F04DFFF749BE7E
:100B000070B58C1810F8015B15F0070301D110F8CF
:100B1000013B2A1106D110F8012B03E010F8016BFC
:100B200001F8016B5B1EF9D12B0705D40023521E7F
:100B30000DD401F8013BFAE710F8013BCB1A921CE7
:100B400003E013F8015B01F8015B521EF9D5A142E5
:100B5000D8D3002070BD00BFFEE7000010B51148DB
:100B60004088401C0F49488008464088B0F57A7F8D
:100B700007DD002008700C4908700CA002F050FE40
:100B800002E00120074908700648007848B9054886
:100B900040884FF6FE71884203DD4FF47A700149B8
:100BA000488010BD46010020450100206E6F206383
:100BB0006F6E6E656374696F6E0D0A00704700009A
:100BC0001FB50121084601F007FC48208DF80F00F1
:100BD0004FF48070ADF80C0003A9134800F0BCFA84
:100BE0000821022000F098FA4FF480700190012053
:100BF0008DF80A0000208DF808000C208DF80900FF
:100C000001A800F07BF817208DF8000001208DF876
:100C1000030006208DF8010000208DF802006846D0
:100C200001F05AFA1FBD00000010014010B5002469
:100C30004FF4807000F04EF8002838D0072001F003
:100C400079FF1D4908700846007800F0200058B16F
:100C50000F2002F029F82021272002F00FF8FF21B1
:100C6000E12002F00BF822E01348007800F0400089
:100C700068B1124801F044FD4021272001F0FEFF39
:100C800001200F49087000200E4948800FE00A48F3
:100C9000007800F0100050B10F2002F005F810218C
:100CA000272001F0EBFFFF21E12001F0E7FF4FF4E7
:100CB000807000F009F810BD4E000020B80100203F
:100CC0004F000020460100200149086070470000E5
:100CD00014040140014600200022074B1B6803EA70
:100CE0000102054B14331B680B4013B10AB10120FC
:100CF00000E000207047000000040140002123496B
:100D00008279002A3AD00A46126803689A430B4651
:100D10001A600A1D126803689A430B1D1A60027953
:100D200011440A6803681A430A60184A08321268B4
:100D300003689A43154B08331A601A1D126803683A
:100D40009A43124B0C331A604279102A0ED11A1FA3
:100D5000126803681A430D4B08331A601A1D126893
:100D600003681A43094B0C331A600DE007494279B6
:100D700011440A6803681A430A6005E002791144C5
:100D80000A6803689A430A60704700000004014043
:100D90002DE9F04F95B005460E46144600276868C9
:100DA000139028681290A8681490E088FFF7EEFB73
:100DB00081469049FFF78AFA80468F49FFF7BEFACD
:100DC0000F90A088FFF7E2FB81468A49FFF77EFA81
:100DD00080468949FFF7B2FA10906088FFF7D6FB8A
:100DE00081468449FFF772FA80468349FFF7A6FAE5
:100DF00011908249F06AFFF76FFA0C907F49306BCF
:100E0000FFF76AFA0D907D49706BFFF765FA0E9057
:100E10002088A0F57A7007B2794B7A48139A109916
:100E200001F09CF9764B7848129A0F9901F096F9E7
:100E3000734B7648149A119901F090F971480C9A05
:100E40006F4B816A724801F089F96F480D9A6C4BBB
:100E5000816A704801F082F96C480E9A684B816A89
:100E60006D4801F07BF96D48007801287ED1B42FE0
:100E70007CDD3846FFF781FB83466548816A58462A
:100E8000FFF7D2F982466348816A5046FFF71EFA9F
:100E900081466148816A4846FFF718FA8046FFF7A5
:100EA000A4FB5F4908803846FFF767FB8346584834
:100EB000816A5846FFF7B8F982465648816A50461B
:100EC000FFF7B2F981465448816A4846FFF7ACF90A
:100ED0008046FFF78AFB534908803846FFF74DFBF1
:100EE00083464B48816A5846FFF7F0F982464948E5
:100EF000816A5046FFF798F981464748816A48461B
:100F0000FFF7E4F98046FFF770FB47490880384651
:100F1000FFF733FB83463E48816A5846FFF7D6F910
:100F200082463C48816A5046FFF7D0F981463A48EC
:100F3000816A4846FFF778F98046FFF756FB3B4940
:100F40000880374802884FF47A71002003F09CF93A
:100F500033490880334802884FF47A71002003F047
:100F600093F9304908803048028800E010E04FF4DF
:100F70007A71002003F088F92B4908802B480288F9
:100F80004FF47A71002003F07FF9284908800CE0C3
:100F90000621274801F09AFB0020214908802149B9
:100FA000088021490880214908802048008803B230
:100FB0001C48008802B21C48008801B2184800880A
:100FC00000B201F05BF8164801881AA002F028FC74
:100FD000144801881AA002F023FC134801881BA0C2
:100FE00002F01EFC114801881BA002F019FC15B08C
:100FF000BDE8F08F0080BB4400004041A34C654237
:101000000AD7233CE0850020188600205086002067
:1010100088860020C0860020F88600204501002038
:101020006401002066010020680100206A010020A0
:101030004C0100206D6F746F72313A25640D0A0007
:101040006D6F746F72323A25640D0A006D6F746FA4
:1010500072333A25640D0A006D6F746F72343A254D
:10106000640D0A0010B525480078002845D12448B1
:101070000078012806D002280ED0032816D00428B4
:1010800039D134E01F48008840F20641884202DA34
:1010900002201B4908702FE01A48008840F2B27104
:1010A000884202DD03201649087025E015480088B3
:1010B00040F20641884208DA04201149087012A063
:1010C00002F0AEFB00201349088012480088401C43
:1010D000104908800846008841F28831884205DDC1
:1010E00000200C49088001200549087004E0012017
:1010F0000249087000E000BF00BF10BD450100209C
:1011000044010020CC850020554E4C4F434B0D0A26
:10111000000000004A01002030B500228B071C0FA0
:101120000F2303FA04F20B4B8C1053F82430934333
:10113000084C8D1044F8253023468C1053F8243089
:101140008C07240F00FA04F42343024C8D1044F85A
:10115000253030BD080001402DE9F0410246002550
:101160000026002000230024002791F803C00CF083
:101170000F0591F803C00CF0100CBCF1000F03D068
:1011800091F802C04CEA050591F800C0BCF1000FCF
:1011900031D0146800202BE04FF0010C0CFA00F362
:1011A000B1F800C00CEA03069E4220D183004FF044
:1011B0000F0C0CFA03F7BC4305FA03FC4CEA0404D9
:1011C00091F803C0BCF1280F06D14FF0010C0CFAC6
:1011D00000FCC2F814C00AE091F803C0BCF1480F4B
:1011E00005D14FF0010C0CFA00FCC2F810C0401CF5
:1011F0000828D1D31460B1F800C0BCF1FF0F34DD72
:10120000546800202EE000F1080C4FF0010808FAA5
:101210000CF3B1F800C00CEA03069E4221D1830012
:101220004FF00F0C0CFA03F7BC4305FA03FC4CEA31
:10123000040491F803C0BCF1280F05D100F1080C9B
:1012400008FA0CF8C2F8148091F803C0BCF1480FFA
:1012500007D100F1080C4FF0010808FA0CF8C2F8A9
:101260001080401C0828CED35460BDE8F081016195
:101270007047000001B5B2B0242128A8FEF7C9FFCD
:10128000FE48006A2790FD48406A2690FB48806A25
:101290002590FA48C06A2490F848006B2390F748DC
:1012A000406B2290F64801680068FFF715F81A9025
:1012B000F4480168F2480068FFF70EF81990F24808
:1012C0000168EF480068FFF707F81890EF480168D9
:1012D000EB480068FFF700F81790EA4801680068DB
:1012E000FEF7FAFF1690E8480168E6480068FEF746
:1012F000F3FF1590E5480168E2480068FEF7ECFF4F
:101300001490E14801680068FEF7E6FF1390DF489B
:101310000168DD480068FEF7DFFF1290DB480168D6
:101320000068FEF7D9FF11900020109000F0F4FF44
:1013300025990846FEF7D0FF0E9026990846FEF73D
:10134000CBFF0C9027990846FEF7C6FF0B900C992F
:10135000FEF76AFF0D900E99FEF766FF0F9002F000
:1013600051FF1B901B992798FEF7B6FF27901B99FA
:101370002698FEF7B1FF26901B992598FEF7ACFF43
:101380002590DDE92610FEF7A7FF0E902599FEF7C0
:10139000A3FF00210F90FFF78BF901D133B000BDFF
:1013A00018991498FEF792FF4FF080410F90FEF7C6
:1013B00093FF219019991298FEF736FF4FF0804164
:1013C0000F90FEF789FF209016991A98FEF77EFF7E
:1013D0000E901399FEF77AFF0F901199FEF724FFF4
:1013E0001F9020992598FEF777FF0F901F99269858
:1013F000FEF772FF0E900F99FEF768FF1E901F997F
:101400002798FEF769FF0F9021992598FEF764FF52
:101410000E900F99FEF75AFF1D9021992698FEF71E
:101420005BFF0F9020992798FEF756FF0E900F99BB
:10143000FEF74CFF1C9096491E98FEF74DFF0F904B
:10144000944801680F98FEF7EFFE924908609049B2
:101450001D98FEF741FF0F908F4801680F98FEF727
:10146000E3FE8D4908608A491C98FEF735FF0F900E
:101470008A4801680F98FEF7D7FE884908604FF048
:101480007F501E99FEF728FF0E902499FEF7CCFEA0
:101490000F90804801680F98FEF7C6FE24904FF029
:1014A0007F501D99FEF718FF0E902399FEF7BCFEA2
:1014B0000F90794801680F98FEF7B6FE23904FF021
:1014C0007F501C99FEF708FF0E902299FEF7ACFEA4
:1014D0000F90724801680F98FEF7A6FE22906B48A5
:1014E00001682298FEF7F8FE0D906748016823987E
:1014F000FEF7F2FE0B90249880F0004009906148BE
:1015000001680998FEF7E8FE0A900B99FEF7DEFEE7
:101510000C900D99FEF7DAFE5D490E90FEF7DCFEA9
:101520000F90574801680F98FEF77EFE54490860F7
:10153000554801682298FEF7CFFE0D905348016888
:101540002398FEF7C9FE0B904D4801682498FEF7DA
:10155000C3FE0A900B99FEF7B9FE0C900D99FEF7A9
:1015600063FE4B490E90FEF7B7FE0F9045480168A9
:101570000F98FEF759FE4349086008460168229813
:10158000FEF7AAFE0D903E4801682398FEF7A4FEE0
:101590000B903E4801682498FEF79EFE0A900B9936
:1015A000FEF742FE0C900D99FEF790FE38490E9022
:1015B000FEF792FE0F90344801680F98FEF734FE54
:1015C00031490860084601682498FEF785FE0D90B1
:1015D0002B4801682298FEF77FFE0B90294801688E
:1015E0002398FEF779FE0A900B99FEF71DFE0C90EA
:1015F0000D99FEF76BFE26490E90FEF76DFE0F90DB
:10160000224801680F98FEF70FFE2049086008463F
:1016100001680068FEF760FE0E901B4801680068D4
:10162000FEF75AFE0C90174801680068FEF754FE5A
:101630000A90134801680068FEF74EFE09900A9967
:10164000FEF7F2FD0B900C99FEF7EEFD0D900E9952
:10165000FEF7EAFD0F9002F0D5FD1B9008481B999C
:101660000068FEF739FE0649086006481B990068C5
:10167000FEF732FE03490860034811E074010020C0
:1016800034010020380100203C01002040010020EE
:101690000AD7A33B280100202C01002030010020A4
:1016A0001B990068FEF718FE8A4908608A481B9952
:1016B0000068FEF711FE8849086016991A98FEF72F
:1016C000B3FD0E901399FEF7AFFD0F901199FEF741
:1016D000ABFD289017991598FEF7F8FD4FF0804163
:1016E0000F90FEF7F9FD299018991498FEF7EEFD7A
:1016F0004FF080410F90FEF7EFFD2A901799159853
:10170000FEF792FD4FF080410F90FEF7E5FD2B9024
:1017100013991A98FEF788FD0E901699FEF7D6FDDC
:101720000F901199FEF7D2FD2C9019991298FEF79F
:10173000CDFD4FF080410F90FEF7CEFD2D90189912
:101740001498FEF7C3FD4FF080410F90FEF7C4FDE3
:101750002E9019991298FEF767FD4FF080410F9077
:10176000FEF7BAFD2F9016991A98FEF7AFFD0E906E
:101770001399FEF7ABFD0F901199FEF755FD3090D0
:101780005648406B56490D90FEF7A6FD55490E9000
:10179000FEF7A2FD0F903298806801460E900F98D8
:1017A000FEF742FD329988604A4801684E48006859
:1017B000FEF792FD0790484801684C480068FEF724
:1017C0008BFD06900799FEF781FD4FF08041089050
:1017D000FEF782FD0990FEF73BFFCDE90A0102F01A
:1017E0009DF981F000414FF0C042414BCDE90C0121
:1017F000FEF7E2FDCDE90E01FEF73DFF32990860EC
:10180000354801680068FEF767FD069031480168B9
:101810000068FEF761FD0490344801680068FEF737
:101820005BFD0290304801680068FEF755FD0190AD
:101830000299FEF74BFD03900499FEF747FD0590D2
:101840000699FEF7F1FC0790FEF702FFCDE90A01C9
:101850002648016824480068FEF73EFD05901E48B2
:1018600001681C480068FEF737FD04900599FEF7F3
:10187000DBFC4FF080410690FEF72EFD0790FEF74F
:10188000E7FECDE90801DDE90A2302F08FFB81F0D4
:1018900000414FF0C042164BCDE90C01FEF78CFD24
:1018A000CDE90E01FEF7E7FE329948600020109066
:1018B0000AE028A9109851F820100E4A42F820108A
:1018C0001098401CC0B2109010980928F1DB00BF9E
:1018D00064E500003C01002040010020740100206C
:1018E000A34C65420AD7233C340100203801002074
:1018F00094A94C40A885002010B5044621467520C7
:1019000000F052FA10BD00BFFEE7000010B54FF422
:10191000E13001F02DFF00F083F800F093FC00F0BF
:101920001BF901F0D7FA01F0B1F801F019F9FFF74E
:1019300047F941F61F4140F2F31001F0BBFD05A04D
:1019400001F06EFF04A001F06BFF642002F0FCFBCD
:1019500010BD00000D0A0000486172645761726595
:1019600020496E69742046696E6973682E2E2E0DAB
:101970000A00000008B50121082000F02DFDC0205C
:10198000ADF8000003208DF8020014208DF803004C
:1019900069460548FFF7E0FB012004490860044957
:1019A000C1F89C0108BD0000000C01409881214253
:1019B000008021422DE9F04104460D462068A060D8
:1019C000E1696068FEF730FCE060216AE068FEF7DC
:1019D0002BFC06463146E068FEF7B0FC2061284645
:1019E000FEF7CBFD8046A168FEF770FC0746216933
:1019F000FEF772FC0646A168FEF716FC60614FF028
:101A00007E502169FEF762FC0646E168FEF764FC41
:101A1000A06160692060A0696060BDE8F08100009D
:101A200008B50121042000F0D7FC1020ADF800001B
:101A30008DF8030003208DF8020069460348FFF784
:101A40008BFB10210148FFF712FC08BD0008014084
:101A50002DE9F04104460D462846FEF78EFD064668
:101A60000C48007818B9666001200A4908703146B0
:101A70000948FEF731FC074608486168FEF72CFC70
:101A800080463946FEF7D0FB206020686060BDE8E4
:101A9000F0810000240100209A99193E9A99593F3B
:101AA00008B56846FFF728FF9DF80000682801D0B8
:101AB000012008BD0020FCE710B500F03DF92348E7
:101AC00001682348FFF776FF21494869FEF774FD56
:101AD0001E490860084641681D482430FFF76AFF28
:101AE0001B49886BFEF768FD184948600846816805
:101AF00017484830FFF75EFF1549C86DFEF75CFDDB
:101B000012498860084601691248FFF7A1FF114990
:101B10000868FEF751FD0D490861084641690D4806
:101B20000830FFF795FF0B498868FEF745FD074928
:101B300048610846816907481030FFF789FF054969
:101B40000869FEF739FD0149886110BD7401002064
:101B5000B80000208485002010B5FFF70BFF02E0DD
:101B60001DA001F05DFEFFF79BFF0028F8D11EA02D
:101B700001F056FE80216B2000F03AF9642002F05B
:101B8000E3FA01216B2000F033F90021382000F046
:101B90002FF918211B2000F02BF908211C2000F040
:101BA00027F904211A2000F023F90021192000F060
:101BB0001FF90221372000F01BF90021232000F03B
:101BC00017F901F0FBFB322002F0BEFA00F022F818
:101BD0000AA001F025FE10BD6D707536303530203D
:101BE0006572726F720D0A006D7075363035302077
:101BF0006E6F726D616C0D0A000000006D707536BD
:101C000030353020496E69742046696E6973680DFD
:101C10000A0000002DE9F04186B018216846FEF761
:101C2000F8FA002400BF28E0632C24DD00F062FCF9
:101C30003E4900980968084400903C490198496869
:101C400008440190394802998068A0F50050084482
:101C5000029036490398096908440390334904986F
:101C600049690844049031490598896908440590F8
:101C70000A2002F069FA601C84B2C82CD4DB0098F8
:101C8000FEF789FC07460022294BFEF707FC0546B4
:101C9000FEF7BFFC00B2274908800198FEF77BFCE5
:101CA00007460022224BFEF7F9FB0546FEF7B1FC82
:101CB00000B2204948800298FEF76DFC07460022DA
:101CC0001B4BFEF7EBFB0546FEF7A3FC00B21949E0
:101CD00088800398FEF75FFC07460022144BFEF74E
:101CE000DDFB0546FEF795FC00B21249C88004985A
:101CF000FEF751FC074600220D4BFEF7CFFB0546D1
:101D0000FEF787FC00B20B4908810598FEF743FCFB
:101D100007460022064BFEF7C1FB0546FEF779FC9D
:101D200000B20449488106B0BDE8F081740100208A
:101D300000005940AC01002010B500F0DBFB184852
:101D400000681849B1F90010401A154908600846A2
:101D500040681449B1F90210401A11494860084618
:101D600080681049B1F90410401A0D49886008468E
:101D700000690C49B1F90610401A09490861084682
:101D800040690849B1F90810401A054948610846F8
:101D900080690449B1F90A10401A0149886110BDEF
:101DA00074010020AC01002070B504460D462A469F
:101DB0002146D02000F08AF80646304670BD00006B
:101DC0000CE00748FFF756FA06480378064A074929
:101DD0000348FEF7DDFF0A2002F0BEFDF1E7000038
:101DE0009C85002045010020CC8500207401002046
:101DF00070B504460D462A462146D02000F014F95D
:101E00000646304670BD000010B500200949086044
:101E10000949C1F89C01012002F0A4F901200549FB
:101E20000860022002F09EF900200349C1F89801E1
:101E300010BD0000988121420080214210B5002091
:101E40000A490860012002F08DF901200849C1F813
:101E50009C0102F087F901200449086002F082F930
:101E600000200349C1F8980110BD0000988121426B
:101E70000080214270B505460024002600BF16E010
:101E8000002010490860022002F06CF901200E4980
:101E9000C1F898016006040E0A487C38006808B151
:101EA000601CC4B2022002F05DF9701CC6B2082E9C
:101EB000E6DB15B9FFF7C2FF01E0FFF7A5FF2046FB
:101EC00070BD0000988121420080214270B5044617
:101ED0000D46164600F06AF8204600F039F800F08A
:101EE0007FF818B100F01CF8012070BD284600F002
:101EF0002FF800F075F818B100F012F80120F4E79F
:101F000000F054F844F0010000F022F800F068F806
:101F10000020FFF7AFFF307000F002F80020E4E788
:101F200010B50020084908600849C1F89C01052047
:101F300002F018F90120044908600449C1F89C0125
:101F4000052002F00FF910BD988121420080214246
:101F500070B50446002500201249086000BF1EE04D
:101F600004F0800020B101200E49091D086003E043
:101F700000200C49091D08606006040E012002F0D3
:101F8000F1F801200749086002F0ECF8002006494A
:101F9000C1F89801012002F0E5F8681CC5B2082DCF
:101FA000DEDB70BD988121420080214210B5012006
:101FB000094908600949C1F89C01052002F0D2F8DE
:101FC00000200549091D0860052002F0CBF800201B
:101FD0000249C1F8980110BD988121420080214238
:101FE00010B5002401200E49086002F0BBF8012062
:101FF0000C49C1F8980102F0B5F807E0601CC4B2C2
:10200000FA2C03DDFFF78CFF012010BD0448803857
:1020100000680028F2D10249091F086000BFF4E7F8
:102020009C8121420080214270B506460C4615462F
:10203000FFF7BCFF3046FFF78BFFFFF7D1FF18B16A
:10204000FFF76EFF012070BD2046FFF781FFFFF70D
:10205000C7FF18B1FFF764FF0120F4E72846FFF738
:1020600077FFFFF7BDFF18B1FFF75AFF0120EAE73E
:10207000FFF756FF0020E6E700BFFEE730B5B0F5FA
:102080007A7F01DD4FF47A70B1F57A7F01DD4FF48C
:102090007A71B2F57A7F01DD4FF47A72B3F57A7F07
:1020A00001DD4FF47A73002800DA0020002900DAFD
:1020B0000021002A00DA0022002B00DA0023044D60
:1020C00028802D1D29802D1D2A802D1D2B8030BD9F
:1020D000340400407047000070B5002100230F2237
:1020E000C47804B3154C246804F4E064C4F5E064D7
:1020F000210AC1F10403CA40447804FA03F1847848
:102100001440214309010E4C0678A155047804F0CF
:102110001F050124AC4005786D11AD0005F1E025E7
:10212000C5F8004109E0047804F01F050124AC4023
:10213000044D0678761145F8264070BD0CED00E0A0
:1021400000E400E080E100E002490143024A11603E
:10215000704700000000FA050CED00E02DE9F047A3
:1021600004460E4615461F4629463046FEF7AEF891
:102170002060D4E90001FEF7A9F880463946FEF751
:10218000DDF8A0612168A068FEF7A6F8E06194F888
:102190003000FEF7FBF98146E168FEF79DF88046C6
:1021A0006169FEF799F82062A1692069FEF794F849
:1021B0006062D4E90701FEF737F88046616AFEF7EE
:1021C00033F8A0621E480078012831D12846E16A20
:1021D000FEF778FA07D3E06A80F0004829464046C7
:1021E000FEF770FA03D2002084F8300023E00120CB
:1021F00084F8300039462068FEF76EF88046616941
:10220000FEF712F86061616B6069FEF75BFA02D25B
:10221000606B60610FE0606B80F000484046616970
:10222000FEF750FA07D2606B80F00040606102E078
:10223000002084F8300020686060BDE8F08700006E
:10224000450100202848294988600020C8600861AD
:102250002748284988600020C86008612648274927
:1022600088600020C86008614FF0404024498860C1
:102270000020C86023480861800723498860002047
:10228000C860224808614FF0404021498860002022
:10229000C8600861154981F830001E48C86248636B
:1022A0000020174981F830001A48C86248630020AE
:1022B000104981F830001748C8624863002012496D
:1022C00081F830001348C862486300200B4981F848
:1022D00030001048C862486300200D4981F8300082
:1022E0000C48C86248637047000020C0E0850020A9
:1022F000000020401886002000004040508600204A
:1023000088860020CDCCCCBDC0860020CDCCCC3D75
:10231000F88600200000C84270B5FFF7CDFB2249C7
:102320000868FEF72AF905462049FDF7D5FF04465F
:102330001F49FDF7D1FF1C4908624868FEF71DF9E7
:1023400005461A49FDF7C8FF04461949FDF7C4FFC1
:10235000154948628868FEF710F905461349FDF7EC
:10236000BBFF04461249FDF7B7FF0F4988620869B1
:10237000FEF703F904460F49FDF7AEFF0A49C862AC
:102380004869FEF7FAF804460A49FDF7A5FF064931
:1023900008638869FEF7F1F804460649FDF79CFFDB
:1023A0000149486370BD0000740100200AE81C4127
:1023B00040DAFF3845798B3A29B1064AD26902439F
:1023C000044BDA6104E0034AD2698243014BDA61CB
:1023D000704700000010024029B1064A926902438A
:1023E000044B9A6104E0034A92698243014B9A616B
:1023F000704700000010024030B500210022002488
:1024000000232D4D6D6805F00C0121B1042905D084
:10241000082923D105E0294D056022E0274D0560FC
:102420001FE0254D6D6805F47012234D6D6805F4AD
:102430008034022505EB92421CB9214D55430560BD
:102440000BE01D4D6D6805F400351DB11C4D554365
:10245000056002E0194D5543056002E0174D056027
:1024600000BF00BF144D6D6805F0F0010909154D5E
:102470006B5C0568DD4045600F4D6D6805F4E061FB
:10248000090A104D6B5C4568DD4085600A4D6D683A
:1024900005F46051C90A0B4D6B5C4568DD40C560B1
:1024A000054D6D6805F44041890B074D6B5CC568AF
:1024B000B5FBF3F5056130BD0010024000127A0053
:1024C00000093D0030000020400000200FE0FEF732
:1024D00045FB07480078012806D100200449087010
:1024E00000F09EF8FEF7BEFD052002F035FAEEE79B
:1024F0004F0000207FB569463B20FFF755FC0DF1EA
:1025000001013C20FFF750FC0DF102013D20FFF7D7
:102510004BFC0DF103013E20FFF746FC01A93F20D3
:10252000FFF742FC0DF105014020FFF73DFC0DF1E6
:1025300006014120FFF738FC0DF107014220FFF7AB
:1025400033FC02A94320FFF72FFC0DF109014420C1
:10255000FFF72AFC0DF10A014520FFF725FC0DF1DC
:102560000B014620FFF720FC03A94720FFF71CFCC6
:102570000DF10D014820FFF717FC9DF801009DF8B3
:10258000001040EA012000B2224908609DF80300D3
:102590009DF8021040EA012000B21E4948609DF8F3
:1025A00005009DF8041040EA012000B21949886036
:1025B0009DF807009DF8061040EA012000B2154979
:1025C000C8609DF809009DF8081040EA012000B29B
:1025D000104908619DF80B009DF80A1040EA01209F
:1025E00000B20C4948619DF80D009DF80C1040EABE
:1025F000012000B207498861C868FDF7BEFF0546A3
:102600000549FDF79BFE04460449FDF70DFE01490F
:10261000C8617FBD740100200000AA43B81E1242A9
:1026200070B500220021002300240020254D6D7884
:10263000244E367845EA0623224DAC784AF6AF257B
:10264000AB4200D070BD032C00D0FBE71D4D2D7EAA
:102650002D061C4E767E45EA06451A4EB67E45EAA4
:102660000625184EF67E45EA0602042004E0154DC4
:102670002D5C2944451CE8B21828F8DB8A421FD19A
:10268000104D6D790F4E367945EA06250E4E358090
:102690000C4DED790B4EB67945EA06250A4E75804C
:1026A000084D6D7A074E367A45EA0625064EB58006
:1026B000044DED7A034EB67A45EA0625024EF580C2
:1026C00000BFBFE7B8010020CC85002010B502464E
:1026D000002012E0002352F82040A36152F820406D
:1026E000236052F8204084F8303052F82040636173
:1026F00052F820406360431CD8B28842EADB10BD28
:1027000010B50446002008490860202221466120B7
:1027100000F0F0F9FF21E22000F0B0FA01200349B7
:10272000C1F8A00110BD0000A0012142000021421B
:1027300010B504460020104908607021272000F0E1
:102740009DFA0E21202000F099FA05220B49302035
:1027500000F074FA05220A492A2000F06FFA2022BC
:102760002146A02000F06AFA01200649C1F8A00124
:102770000A2001F0F7FC10BDA00121424400002016
:10278000490000200000214200B587B00121082047
:10279000FFF722FE01218803FFF70EFE18208DF8B7
:1027A0001B004FF46040ADF8180003208DF81A00AC
:1027B00006A91348FEF7D0FC1020ADF81000002049
:1027C000ADF80C00ADF80A00ADF80800ADF8120045
:1027D0004FF40070ADF80E004FF48270ADF80600B3
:1027E0000720ADF814000020ADF8040001A9054849
:1027F00000F040F80121034800F022F807B000BDC6
:10280000000C01400038004010B5044600BF022112
:102810000A4800F021F80028F9D02146074800F0C6
:1028200027F800BF0121054800F016F80028F9D06C
:10283000024800F01AF8C0B210BD00000038004095
:1028400021B1028842F04002028004E002884FF683
:10285000BF731A40028070470246002013890B4064
:102860000BB1012000E000207047014688897047C5
:102870008181704710B50022028802F441520B8812
:102880004C8823438C882343CC8823430C892343DF
:102890004C8923438C892343CC8923431A430280E8
:1028A000838B4FF2FF74234083830B8A038210BD16
:1028B0002DE9F04389B0202101A8FDF7AAFC2549A4
:1028C0004868FDF779FE0FFA80F94846FDF755FE96
:1028D00080462149FDF700FD0746FDF76DFE04B275
:1028E0001C490868FDF768FE0FFA80F94846FDF7B5
:1028F00044FE80461849FDF7EFFC0746FDF75CFEF5
:1029000005B214498868FDF757FE0FFA80F948466A
:10291000FDF733FE80461049FDF7DEFC0746FDF764
:102920004BFE06B220128DF8040060B28DF805004F
:1029300028128DF8060068B28DF8070030128DF865
:10294000080070B28DF8090001A8FFF7F1FE09B088
:10295000BDE8F0839C8500200000C84210B500F05F
:1029600001F810BD0CB500200190009033480068BC
:1029700040F480303149086000BF3048006800F4FE
:10298000003000900198401C0190009818B90198FF
:10299000B0F5A06FF1D12948006800F4003010B103
:1029A0000120009001E0002000900098012843D110
:1029B0002348006840F0100021490860084600687C
:1029C00020F0030008600846006840F0020008603C
:1029D0001A484068194948600846406848600846F7
:1029E000406840F4806048600846406820F47C10ED
:1029F00048600846406840F4E810486008460068AF
:102A000040F08070086000BF0C48006800F0007063
:102A10000028F9D00948406820F0030007494860C1
:102A20000846406840F00200486000BF0348406824
:102A300000F00C000828F9D10CBD00000010024085
:102A40000020024010B502E005A000F0E9FE00F011
:102A5000CFF80028F8D008A000F0E2FE10BD00007A
:102A60005369323472206E6F20636F6E6E656374CB
:102A7000696F6E0D0A000000536932347220636F73
:102A80006E6E656374696F6E0D0A000008B50121F2
:102A90001C20FFF7A1FC10208DF803000002ADF808
:102AA000000003208DF8020069460E48FEF754FB33
:102AB00010208DF803000001ADF8000003208DF810
:102AC000020069460848FEF747FBFFF75DFEFFF787
:102AD000B9FF01200549086000200549C1F8A0019F
:102AE00008BD0000000C014000080140B0812142F7
:102AF000000021422DE9F04107460D46164600240C
:102B000000200B4908603846FFF77EFE804600BF74
:102B100005E0FF20FFF778FE2855601CC4B2B442E0
:102B2000F7D30120024908604046BDE8F08100006B
:102B3000B081214270B50446002007490860204654
:102B4000FFF762FEFF20FFF75FFE05460120034905
:102B5000C1F8B001284670BDB081214200802142F9
:102B600010B500201E4908600321232000F086F8DC
:102B700005221C49302000F061F805221A492A205C
:102B800000F05CF8FF21242000F078F801212220D9
:102B900000F074F80121212000F070F8202131208C
:102BA00000F06CF8052210492A2000F047F81E2199
:102BB000252000F063F82721262000F05FF80E2082
:102BC00000F072F8FF21E12000F058F8FF21E22028
:102BD00000F054F801200549C1F8A00110BD000023
:102BE000A0012142440000204900002000002142B1
:102BF0001CB510A103C9CDE90001052269463020AA
:102C000000F01CF8052269461020FFF773FF00242E
:102C100006E01DF80400A52800D003E0601CC4B243
:102C2000052CF6DB00BF052C01D000201CBD0120C7
:102C3000FCE70000A5A5A5A5A50000002DE9F04131
:102C400007460C461546002600200B49086038460A
:102C5000FFF7DAFD804600BF05E02078FFF7D4FDDE
:102C6000641C701CC6B2AE42F7DB0120024908604A
:102C70004046BDE8F0810000B081214270B50546B4
:102C80000C460020064908602846FFF7BDFD204697
:102C9000FFF7BAFD01200349C1F8B00170BD000083
:102CA000B08121420080214210B504460E2C0FD184
:102CB0000020114908600E212020FFF7DFFF7E2150
:102CC0002720FFF7DBFF01200C49C1F8A00111E02C
:102CD0000020094908600F212020FFF7CFFF7E2147
:102CE0002720FFF7CBFF01200449C1F8A001C8202D
:102CF00001F038FA10BD0000A0012142000021427D
:102D00001CB5044601F0D4FD1348006802210023DD
:102D10008022CDE9001011A1124801F043FF1248B2
:102D20000068032100234FF48062CDE900100FA159
:102D3000124801F037FF1248006804210023CA013D
:102D4000CDE900100FA1124801F02CFF002001F086
:102D50001DFE01F0BFFD1CBD040000205461736B1B
:102D60003100000095340008080000204D50553611
:102D70003035305F5461736B00000000C11D0008E6
:102D80000C00002052454D4F54455F5461736B0059
:102D9000CD240008042808D14FF0E021096941F052
:102DA00004014FF0E022116107E04FF0E0210969D2
:102DB00021F004014FF0E0221161704710B501F0DD
:102DC00025FF012801D001F0D3FE10BD70B50446E7
:102DD00000204FF0E0210861401FFFF7DBFFE11703
:102DE00004EB5171C1F3C7010B4A1170E11704EBF9
:102DF0005171CD104FF47A7045434FF0E0200069D7
:102E000040F002004FF0E02108610846456100698A
:102E100040F00100086170BD5000002010B513485B
:102E2000006840F0010011490860084640681049F8
:102E300008400E494860084600680E4908400B49A2
:102E400008600846006820F4802008600846406852
:102E500020F4FE0048604FF41F008860FFF77EFDFD
:102E60004FF000600449086010BD000000100240EF
:102E70000000FFF8FFFFF6FE08ED00E00020124919
:102E800008600846006840F48030086000BF0E48C3
:102E9000006800F400300028F9D000200A4948609A
:102EA00008464068094908430749486008460068E1
:102EB00040F08070086000BF0348406800F00C00DC
:102EC0000828F9D1704700000010024002841D005C
:102ED0007047000000B589B001210C20FFF77CFA93
:102EE00001210220FFF768FA18208DF82300C02086
:102EF000ADF8200003208DF8220008A93848FEF71D
:102F00002BF918208DF823000320ADF820008DF850
:102F1000220008A93348FEF71FF90020ADF81A0077
:102F2000ADF8160040F2E730ADF818000220ADF819
:102F3000140005A92C4800F0EFF96020ADF804005A
:102F40000120ADF806000020ADF80A00ADF80C0035
:102F500001A9254800F084F80821234800F0CCF8A6
:102F60006020ADF804000120ADF806000020ADF8A7
:102F70000A00ADF80C0001A91B4800F0C7F80821B1
:102F8000194800F015F96020ADF804000120ADF8F3
:102F900006000020ADF80A00ADF80C0001A91248A7
:102FA00000F014F90821104800F060F96020ADF835
:102FB00004000120ADF806000020ADF80A00ADF8CD
:102FC0000C0001A9084800F05BF90821064800F050
:102FD00095F90121044800F01CF809B000BD00007B
:102FE00000080140000C01400004004010B5012120
:102FF000054800F01AF808B1FFF75AFC0121024811
:1030000000F004F810BD000000080040CA4302822E
:10301000704721B1028842F00102028004E0028878
:103020004FF6FE731A400280704730B5024600200A
:1030300000230024158A05EA0103958905EA0104A5
:1030400013B10CB1012000E0002030BD1AB183891A
:103050000B43838102E083898B43838170470000A7
:1030600070B5002400220023058C4FF6FE76354013
:103070000584028C8388048B4FF68F752C40B51E17
:103080002C400D882C43751E2A400D892A434D88FB
:103090002A43144DA8420BD0134DA84208D0134D1B
:1030A000A84205D0124DA84202D0124DA84213D119
:1030B0004FF6F7752A404D892A434FF6FB752A4093
:1030C0008D882A434FF6FF652B404FF6FF552B4066
:1030D0008D892B43CD892B4383800483CD888586BE
:1030E000028470BD002C01400034014000400140CA
:1030F00000440140004801400A460021018B4FF680
:10310000F7731940114301837047000070B5002424
:1031100000220023058C4FF6EF7635400584028CA3
:103120008388048B48F6FF752C404FF6FF452C40F2
:103130000D884FF6FF7606EA05252C434FF6DF751E
:103140002A400D8906EA05152A434D8806EA051529
:103150002A43154DA84202D0144DA8421DD14FF666
:103160007F752A404D894FF6FF7606EA05152A43FA
:103170004FF6BF752A408D8806EA05152A434FF69B
:10318000FF352B404FF2FF752B408D8906EA8505F0
:103190002B43CD8906EA85052B4383800483CD88A4
:1031A0000587028470BD0000002C014000340140FE
:1031B0000A460021018B4FF2FF7319404FF6FF734F
:1031C00003EA0223194301837047000070B500240D
:1031D00000220023058C4FF6FF6635400584028CE3
:1031E0008388848B4FF68F752C404FF6FC752C40EE
:1031F0000D882C434FF6FF552A400D894FF6FF7678
:1032000006EA05252A434D8806EA05252A43154D79
:10321000A84202D0144DA8421DD14FF2FF752A409A
:103220004D894FF6FF7606EA05252A434FF6FF350E
:103230002A408D8806EA05252A434EF6FF752B4065
:103240004DF6FF752B408D8906EA05152B43CD8978
:1032500006EA05152B4383808483CD888587028405
:1032600070BD0000002C0140003401400A460021DE
:10327000818B4FF6F773194011438183704700002B
:1032800070B5002200230024058C4EF6FF763540F1
:103290000584038C8488828B48F6FF752A404FF69C
:1032A000FF452A400D884FF6FF7606EA05252A439A
:1032B0004DF6FF752B400D8906EA05352B434D88E9
:1032C00006EA05352B430B4DA84202D00A4DA84211
:1032D00008D14BF6FF752C408D894FF6FF7606EA34
:1032E00085152C4384808283CD88A0F840500384C8
:1032F00070BD0000002C0140003401400A4600214E
:10330000818B4FF2FF7319404FF6FF7303EA0223DC
:103310001943818370470000002202881D4B9842A8
:103320000ED01D4B98420BD0B0F1804F08D01B4BF4
:10333000984205D01A4B984202D01A4B984204D1B9
:103340004FF68F731A404B881A43174B984207D099
:10335000164B984204D04FF6FF431A40CB881A43CD
:1033600002808B8883850B8803850A4B98420BD09B
:10337000094B984208D00E4B984205D00D4B98420D
:1033800002D00D4B984201D10B7A03860123838230
:1033900070470000002C0140003401400004004050
:1033A00000080040000C00400010004000140040E5
:1033B0000040014000440140004801407FB51E2408
:1033C0000A256E4200200290039000900190FFF7C2
:1033D00091F82F48008A00B2ADF808002C48808A86
:1033E00000B2ADF80A002A48008B00B2ADF80C001C
:1033F00047E000BFFFF77EF8142000F0A5FE244848
:10340000008ABDF80810401A00B2ADF8000020484C
:10341000808ABDF80A10401A00B2ADF802001C48BC
:10342000008BBDF80C10401A00B2ADF8040018482B
:10343000008A00B2ADF808001548808A00B2ADF8E5
:103440000A001348008B00B2ADF80C00BDF9000073
:1034500010F10A0FCEDBBDF900000A28CADCBDF965
:10346000020010F10A0FC5DBBDF902000A28C1DC19
:10347000BDF9040010F10A0FBCDBBDF904000A28F5
:10348000B8DC201EA4F10101CCB2B2D17FBD000096
:103490007401002008E005480068C0430449C1F8F1
:1034A0009001C82001F058FAF5E700009001214290
:1034B000000021427FB505460C4601210420FEF79D
:1034C0007BFF0020ADF80A00ADF80600ADF808500B
:1034D000ADF8044001A90E48FFF71EFF1E208DF82D
:1034E000000001208DF8030007208DF80100002066
:1034F0008DF802006846FEF7EFFD012211460448F0
:10350000FFF7A4FD01210248FFF783FD7FBD000006
:103510000008004010B540F225511D4800F060F849
:1035200010B31B4800F018F9C4B21A48008800F420
:103530000040C8B91748008800F4804060B10A2CE8
:1035400003D000201349088020E01248008840F48E
:1035500000401049088019E00D2C06D10D48008864
:1035600040F480400B49088010E00A480088C0F30E
:103570000D0009490C5407480088401C0549088083
:1035800008460088C72801DD0020088010BD000023
:103590000038014054000020D801002001F40072DE
:1035A000B2F5007F00D100BFCA430280704721B14D
:1035B000828942F40052828104E082894DF6FF73D1
:1035C0001A408281704702460020B1F5007F00D189
:1035D00000BF13880B400BB1012000E000207047B2
:1035E00070B50246002400230025002040F66A162C
:1035F000B14200D100BFC1F3421501F01F03012603
:1036000006FA03F3012D02D19689334006E0022D1C
:1036100002D1168A334001E0968A33400C1201260B
:1036200006FA04F41688344013B10CB1012000E00E
:10363000002070BDF0B503460024002600250020C0
:1036400040F66A17B94200D100BF1846C1F34214D0
:1036500001F01F06012707FA06F5012C01D10C30F5
:1036600004E0022C01D1103000E014301AB10768D8
:103670002F43076002E00768AF430760F0BD00001A
:103680002DE9F04786B005460E460024A24600BF4D
:10369000A1460027B08900B100BF2F462C8A4CF606
:1036A000FF700440F08804432C82AC894EF6F3107E
:1036B0000440B08831890843718908430443AC81D0
:1036C000AC8A4FF6FF400440B0890443AC8201A8A5
:1036D000FEF792FE1F48874202D1DDF810A001E0FC
:1036E000DDF80CA0A88900F4004040B10AEBCA0044
:1036F00000EB0A1031684900B0FBF1F807E00AEB73
:10370000CA0000EB0A1031688900B0FBF1F86420B0
:10371000B8FBF0F004012009642101FB1089A8899D
:1037200000F4004040B1322000EBC900B0FBF1F0E2
:1037300000F00700044308E0322000EB0910642188
:10374000B0FBF1F000F00F0004432C8106B0BDE89F
:10375000F08700000038014001468888C0F3080067
:103760007047C1F308028280704700BFFEE7000087
:1037700010B586B0044601210420FEF72DFE01217C
:103780008803FEF729FE4FF40070ADF81400032003
:103790008DF8160018208DF8170005A91E48FDF7B2
:1037A000DBFC4FF48060ADF8140004208DF81700A6
:1037B00005A91948FDF7D0FC01940020ADF80800D8
:1037C000ADF80A00ADF80C00ADF810000C20ADF813
:1037D0000E0001A91148FFF753FF01210F48FFF721
:1037E000E6FE40210D48FFF7D9FE012240F22551A7
:1037F0000A48FFF71FFF25208DF8000003208DF8F1
:1038000001008DF8020001208DF803006846FEF7E4
:1038100063FC06B010BD0000000801400038014004
:103820000FB4054B10B503A9044A029800F09AF8AA
:1038300010BC5DF814FB0000AD4100086C010020D5
:10384000490050EAC12018BF04204A0D18BF40F0BB
:10385000010040F2FF72B2EB515F08BF40F002007E
:10386000012808BF052070472DE9F0414F1E00EBED
:10387000C7010446D1E9000115461E4637F006028D
:103880000DD02A463346FCF797FD7F1E04EBC70395
:10389000D3E90023FCF7DAFF37F00602F1D1022F5B
:1038A00025D0042F13D0062F18BFBDE8F0812A467B
:1038B0003346FCF781FDD4E90A23FCF7C7FF2A460B
:1038C0003346FCF779FDD4E90823FCF7BFFF2A460D
:1038D0003346FCF771FDD4E90623FCF7B7FF2A460F
:1038E0003346FCF769FDD4E90423FCF7AFFF2A4611
:1038F0003346FCF761FDD4E90223FCF7A7FF2A4613
:103900003346FCF759FDD4E90023BDE8F041FCF74C
:103910009DBF0122FDF741B8FCF798BF0022134676
:1039200010461146FCF7BABD024A00201107FDF708
:1039300034B8000001FDFFFF02E008C8121F08C1F3
:10394000002AFAD170477047002001E001C1121F20
:10395000002AFBD170470000014908607047000051
:10396000700100202DE9FF4F8BB09A460F460546A7
:10397000002606E025280BD052460D9990476D1C75
:10398000761C28780028F5D10FB03046BDE8F08FBE
:103990000024A0460122604900E0044315F8013FDD
:1039A000203B02FA03F00842F7D128782E2817D1DD
:1039B00015F8010F44F004042A280ED06FF02F02EE
:1039C0002878A0F1300109290AD808EB880102EB18
:1039D000410100EB01086D1CF2E757F8048B6D1CE8
:1039E000287869283ED006DC0028CDD063280BD08B
:1039F000642804D136E0732810D075284BD0524685
:103A00000D999047761C85E017F8040B8DF800009F
:103A100000208DF80100E946012003E057F8049BDF
:103A20004FF0FF3061074FF0000401D40AE0641C3E
:103A300044450DDA8442FADB19F804100029F6D166
:103A400006E0641C8442FCDB19F804100029F8D15C
:103A5000264404E019F8010B52460D999047641E64
:103A6000F8D257E001CF4FF00A0B002802DA4042AB
:103A70002D2102E0210504D52B218DF824100121F0
:103A800003E0E10705D02021F7E70DF120090891B7
:103A90000CE00021F9E701CF4FF00A0BF9E7594696
:103AA000FCF71AFE01F1300209F8012D0028F6D1C9
:103AB000ADEB090000F1200B600701D44FF00108C5
:103AC000D84502DDA8EB0B0000E000208046002472
:103AD00006E009A85246005D0D999047641C761CCB
:103AE00008988442F5DB04E0302052460D99904757
:103AF000761CB8F10001A8F10108F5DC05E019F821
:103B0000010B52460D999047761CBBF10001ABF1B9
:103B1000010BF4DC6D1C34E7092801002DE9F04DA0
:103B20008D4F21F0004A86B005460C46BA452ADB87
:103B3000AAEB070028430AD08848824501DC1AD145
:103B4000CDB106B02846BDE8F04DFFF7E2BE844A8D
:103B5000844B2846FCF730FC07460E46824A834BCE
:103B600028462146FCF728FC06B03A463346BDE815
:103B7000F04DFCF76BBE0120FFF7EEFE06B0BDE88E
:103B8000F04DFFF7CBBE7A48824542DABAF1795F51
:103B90000BDA2846FFF754FE042808BFFFF7C4FEDF
:103BA000284606B02146BDE8F08D2A460B46104651
:103BB000FCF702FC834602466E480E460B46062181
:103BC0007844FFF751FE5A463346FCF7F5FB804632
:103BD00069488A465A46334604217844FFF744FE32
:103BE0005A463346FCF7E8FB00223B46FCF72EFE24
:103BF00002460B4640465146FCF750FC2A462346F7
:103C0000FCF7DAFB06B02A462346BDE8F04DFCF788
:103C10001DBE284624F0004100223D463B46FCF7ED
:103C2000B9FE4FF0FF32FCF7B8FE06460246534895
:103C30000F460B4606217844FFF716FE32463B46F8
:103C4000FCF7BAFBCDE900014D4832463B46042162
:103C50007844FFF709FE32463B46FCF7ADFB0022F5
:103C60002B46FCF7F3FD834602913046394600F0BF
:103C7000AFFD804643480D46504517DCDDE90001A5
:103C80005A46029BFCF70AFC42462B46FCF794FB83
:103C900042462B46FCF7DAFD0122FCF77EFE304A55
:103CA000304BFCF774FE304A304B4CE04FF0000ACA
:103CB00052460B464046FCF7C9FDCDE9031052467B
:103CC0002B4610461946FCF777FB32463B46FCF77D
:103CD00061FEDDE90332FCF7E1FB06460F46DDE954
:103CE00000015A46029BFCF7D9FB83460091012252
:103CF00030463946FCF751FE194A1A4BFCF74AFE8A
:103D000006460F46012240462946FCF746FE5A4623
:103D1000009BFCF751FB32463B46FCF738FE06465B
:103D20000F46012250462946FCF737FE0E4DDFF8BC
:103D300058802A464346FCF72DFE32463B46FCF7A8
:103D400029FE2A464346FCF725FE002CD8BF81F009
:103D5000004106B0BDE8F08D0000F03F0000F07FAC
:103D6000075C143326A6913C182D4454FB21F93FDF
:103D70000000E03F641300007A130000EE12000020
:103D8000041300003333EF3FFB21E93F2DE9F84FE7
:103D900004460D4621F0004000917349814211DC38
:103DA0007249884201DC06D12CB120462946BDE883
:103DB000F84FFFF7AEBD6E48002DCCBF6D496E4980
:103DC000BDE8F88F6D49814211DD6D498142D8BF50
:103DD0004FF0FF366DDD20462946FFF731FD042800
:103DE00008BFFFF7A1FD20462946BDE8F88F6549C9
:103DF000654F25F00045814233DD6449814219DD7C
:103E0000002632464FF0804320462946FCF71EFD2F
:103E100080468A46012220462946FCF7BEFD002244
:103E20003B46FCF7B4FD42465346FCF737FB0446DD
:103E30000D463EE001260022BA463B462046294672
:103E4000FCF704FD80460F460022534620462946D3
:103E5000FCF79DFD42463B46FCF720FB04460D4621
:103E600027E04B4981421BDDDFF828A10226002212
:103E7000534620462946FCF79FFA00223B46FCF7B2
:103E8000E5FC80460F460022534620462946FCF7B3
:103E90007EFD42463B46FCF701FB04460D4608E02A
:103EA000032622462B4600203B49FCF7F7FA04463E
:103EB0000D4622462B4610461946FCF77DFA8B46E6
:103EC000824602460B46FCF777FA0746024633481D
:103ED00088460B4606217844FFF7C6FC52465B46EF
:103EE000FCF76AFA82462E488B463A46434605213D
:103EF0007844FFF7B9FC3A464346FCF75DFA0246C0
:103F00000B46002E504659460CDAFCF79FFC224621
:103F10002B46FCF751FA01B022462B46BDE8F04F84
:103F2000FCF738BDFCF792FC22462B46FCF744FA1E
:103F30001C4A7A4402EBC603D3E90023FCF727FDB1
:103F400022462B46FCF723FD174A7A4402EBC603B0
:103F5000D3E90023FCF71EFD009A002AB8BF81F0C8
:103F60000041BDE8F88F0000000010440000F07F21
:103F7000182D4454FB21F93FFB21F9BF0000DC3F21
:103F80000000203E0000F33F0000F03F0000E63F4D
:103F9000008003400000F83F0000F0BF0611000061
:103FA000C4100000621000002A1000002DE9F04D3E
:103FB0009446CCF1000423F000464CEA0404594F27
:103FC00046EAD4749A46884621F00042BC4206D89C
:103FD000454240EA050442EAD474BC4204D9BDE833
:103FE000F04D6246FFF798BCAAF14055A5F17F65F8
:103FF00055EA0C040BD0022404EAAA744A4DDFF8F7
:104000002CE144EAD87452EA000B04D00CE0BDE87D
:10401000F04DFFF7BBBE002C14BF012CBDE8F08DA6
:10402000022C30D0032C32D056EA0C0B0AD0BE4200
:1040300020D1BA4209D126F0804622F08042334690
:10404000114617E000291ADB25E0DFF8E4B0FB4455
:10405000002C04BFDBE90001BDE8F08D012C02BF9C
:10406000DBE9000181F00041BDE8F08D022C0AD0AF
:10407000032C0CD0BA4212D1B8F1000F0BDA2A4847
:104080002C49BDE8F08D28462B49BDE8F08D284627
:104090007146BDE8F08D24482849BDE8F08D921B9B
:1040A00012153C2AC4BF204F244E10DCBAF1000F79
:1040B000BEBF12F13C0F00273E4608DB6246FCF70C
:1040C000EDF921F00041FFF761FE07460E4694B17D
:1040D000012C08BF86F000460DD0194A194B022C5E
:1040E0003846314615D0FCF752FC2A46BDE8F04D63
:1040F000114BFCF74CBC0022134638463146FCF706
:1041000063FC04BF0220FFF727FC38463146BDE8B8
:10411000F08DFCF73CFC2A46BDE8F04D064BFCF761
:1041200039BC00000000F07F182D4454FB2109C069
:10413000BE0F0000FB21F9BFFB210940FB21F93F25
:10414000075C143326A6A13C30B50446002500BF09
:1041500004E04FF47A7000F005F86D1CA542F8D326
:1041600030BD000070B5034600224FF0E0267569AF
:104170000D4E367803FB06F44FF0E026B16910E0EF
:104180004FF0E026B06988420BD0884202D20E1A66
:10419000324402E02E1A0E4432440146A24200D3B9
:1041A00000E0EDE700BF70BD5000002070B5044690
:1041B0000D46E1B20548FFF7D4FA00BF802103485D
:1041C000FFF701FA0028F9D0204670BD0038014001
:1041D0001CB507480068012100238022CDE90010AA
:1041E00004A1074800F0DEFC00F03AFC1CBD000012
:1041F0000000002053746172745F5461736B00009F
:10420000012D00082DE9F04704464FF07C5120466F
:10421000FCF762F8814625462E460C48A0EB660660
:10422000354629464846FCF757F882462946FCF7AA
:1042300053F880464FF07F51FCF74BF8074629466C
:10424000FCF74AF805462846BDE8F087865A375FEE
:1042500000B589B0142104A8FBF7DBFF094A07CA9F
:1042600001AB07C3FEF70AFE4FF44070FDF76CFF89
:104270004820FEF7ABFDFDF749FBFFF7A9FF002043
:1042800009B000BD184F000803468A4200DD0A4607
:104290009A4200DA1A461046704700002DE9F041B4
:1042A00005460E462648076826480068001D00F0AF
:1042B000B5FA50B92348006890F82C1001208840C6
:1042C00021490968814320480160681CD8B9D6B1EA
:1042D0001E4948681B49096888601A49826809684C
:1042E000CA6018490968091D826851601549096842
:1042F000091D8160154A134909684A611146096818
:10430000491C11601AE07C190E4800684460BC42E8
:1043100007D20C480168091D0D48006800F0A2FA98
:104320000CE008480168091D0A48006800F09AFA84
:1043300009480068844201D207480460BDE8F08162
:104340006C00002058000020700000207005002044
:10435000600000205C0000208800002010B50446AA
:1043600000F0A6FA2F480068401C2E4908602E482D
:10437000006840B92C4804600846006801280DD147
:1043800000F016F90AE02948006838B926480068A4
:10439000C06AE16A884201D8234804602448006862
:1043A000401C2349086094F82C10012088402149C2
:1043B000096808431F490860E16A01EB81011E4A50
:1043C00002EB81014868A0608268E260211D82687A
:1043D00051608160E16A01EB8101174A02EB8102C1
:1043E0006261E16A01EB8101134A52F82110491C14
:1043F000E26A02EB8202104B43F8221000F06AFAE4
:104400000A48006868B108480068C06AE16A8842E2
:1044100007D24FF0805009490860BFF34F8FBFF3B8
:104420006F8F10BD6800002058000020740000202D
:104430008400002070000020A002002004ED00E0B5
:1044400010B516E000F034FA0C48C068C468201DAE
:1044500000F0E4F90A480068401E0949086009486C
:104460000068401E0749086000F034FA204600F05A
:104470000BF8044800680028E4D110BD5C0500205A
:10448000680000206400002010B50446206B00F096
:1044900031FA204600F02EFA10BD000030B54FF47E
:1044A0000043154800F007042CB1C01D20F00700A0
:1044B000114C041B1B1B0246104C226000240F4DA4
:1044C0006C60D018083820F007000D4C20600024E4
:1044D0000B4D2D686C600A4D2D682C601146441AF6
:1044E0004C60074C24680C60064D4C682C60064DEF
:1044F0004C682C6030BD000084050020980000202E
:10450000A0000020A8000020A400002000BFFFF7AA
:1045100097FF064800680128F9D94FF080500449F8
:104520000860BFF34F8FBFF36F8FF0E7A00200204A
:1045300004ED00E02DE9FF5F80460E469146DDE97F
:104540000E7A109CA9F10100216B01EB800B2BF07E
:10455000070B7EB1002507E0715D04F13400415581
:10456000705D00B902E06D1C102DF5D300BF002175
:1045700043200155202F00D31F27E762201D00F0A4
:104580006EF904F1180000F06AF92461C7F1200007
:10459000A061646241465846039A00F007F9206022
:1045A000BAF1000F01D0CAF80040BDE8FF9F00003B
:1045B00010B5002407E004EB84010F4A02EB8100F0
:1045C00000F040F9641C202CF5D30C4800F03AF9B7
:1045D0000B4800F037F90B4800F034F90A4800F0B6
:1045E00031F90A4800F02EF90448094908600448E6
:1045F0000849086010BD0000A0020020200500202E
:1046000034050020480500205C05002070050020CE
:104610005C0000206000002010B50146164800E054
:10462000006803688B42FBD30246436813448B4205
:1046300004D143684C682344436001460A464B68F2
:1046400013440468A34211D10C4C03682468A342AC
:1046500008D04B680468646823444B6003681B6897
:104660000B6005E0054B1B680B6001E003680B6005
:10467000884200D0016010BD98000020A0000020FA
:1046800009480068006808B9012000E0002020B156
:104690004FF0FF300549086005E003480068C06836
:1046A00000680249086070475C0000208800002014
:1046B00000BFBF2080F31188BFF34F8FBFF36F8F10
:1046C00000BF00BFFEE700002DE9F04705464FF0B0
:1046D000000900F0FBF93048006808B9FFF7DEFE7A
:1046E00075B105F00700C0F11008C8F1FF30A8420D
:1046F00001D2012000E0002008B9454400E0002577
:10470000012000EBE570002841D0002D3FD0234868
:10471000006885423BD8224E3046046801E02646B8
:1047200024686068A84202D220680028F7D11A489D
:10473000006884422BD0306800F10809206830609E
:104740006068401B102807D967196068401B7860B3
:1047500065603846FFF760FF104960680968081A0D
:104760000E490860084600680E490968884203D26D
:104770000A4800680B490860606840F000406060CB
:104780000020206008480068401C0749086000F0CD
:1047900015FB4846BDE8F087A0000020A4000020DB
:1047A00098000020A8000020AC000020001F4FF05F
:1047B00080730360001F21F001030360001F034B9F
:1047C000036014380260203870470000B1460008CA
:1047D0002DE9F04106460F46FCF741F9041E0D464F
:1047E00018BF0120284320F00040C0F17F6000F195
:1047F000E040C00F0ED0301C18BF0120384320F01D
:104800000040C0F17F6000F1E040C00F04BF012014
:10481000FFF7A2F820462946BDE8F08101460A6963
:10482000D1E901309860D1E90103586050688842AD
:1048300001D188685060002008611068401E106037
:104840001068704700F1080141604FF0FF3181604E
:1048500000F10801C1600161002101607047002181
:104860000161704710B502460B685C1C0CB91069F9
:1048700007E002F1080000E04068446824689C42B8
:10488000FAD944684C604C68A160886041600A6154
:104890001468641C146010BD42684A6093688B60A1
:1048A000936859609160086103685B1C03607047FE
:1048B00000BFBF2080F31188BFF34F8FBFF36F8F0E
:1048C00000BF03480068401C0149086070470000B1
:1048D000B400002006480068401E054908600846EC
:1048E000006820B9002080F3118800BF00BF704726
:1048F000B400002070B506463546E6B1083D2C46AA
:104900006068C00FB8B12068A8B9606820F00040A6
:10491000606000F0DBF808496068096808440649EF
:1049200008602046FFF778FE04480068401C0349F1
:10493000086000F043FA70BDA4000020B000002021
:1049400000204FF0E021086188610248486107209B
:10495000086170473F19010070B50446002544B155
:1049600000F0B4F800212046FFF798FC00F026FA8A
:1049700005463DB94FF0805003490860BFF34F8FA3
:10498000BFF36F8F70BD000004ED00E070B5054609
:10499000FFF78EFF15B92948006800E02846044655
:1049A000201DFFF73BFF78B9E06A00EB8000244947
:1049B00051F8200040B994F82C100120884021497A
:1049C000096881431F480160A06A18B104F118000A
:1049D000FFF724FF1C480068401C1B49086017486B
:1049E0000068844209D1211D1848FFF755FF184877
:1049F0000068401C1649086006E016480068401E22
:104A000014490860FFF73CFEFFF764FF0B4800689D
:104A1000844202D02046FFF737FD0F48006858B1A6
:104A200006480068844207D14FF080500B49086067
:104A3000BFF34F8FBFF36F8F70BD00005800002091
:104A4000A002002070000020840000205C050020EF
:104A500064000020680000207400002004ED00E0E5
:104A60001CB5124800210B468022CDE9001010A190
:104A7000114800F097F80446012C14D100BFBF2064
:104A800080F31188BFF34F8FBFF36F8F00BF4FF0DC
:104A9000FF300A49086001200949086000200949DF
:104AA000086000F04BF8084800681CBD8C0000202E
:104AB00049444C45000000000D45000888000020D6
:104AC000740000206C000020900000200248006864
:104AD000401C01490860704794000020124800689B
:104AE00018B10120114908601DE000200F4908603D
:104AF0000F480068B0FA80F0C0F11F0101EB81029D
:104B00000C4B03EB820042685268426000F10802DD
:104B10004368934202D14268526842604268D26858
:104B2000054B1A6000BF7047940000207C000020F5
:104B300070000020A00200205800002010B50A4894
:104B4000006840F47F00084908600846006840F0AB
:104B50007F400860FFF7F4FE002004490860FBF77F
:104B600005FB002010BD000020ED00E0B400002097
:104B700010B500BFBF2080F31188BFF34F8FBFF384
:104B80006F8F00BF00F052F818B14FF08050044909
:104B9000086000BF002080F3118800BF10BD000036
:104BA00004ED00E02DE9FF4F85B0804689461746A9
:104BB000DDE912ABB800FFF787FD064676B14C2061
:104BC000FFF782FD04462CB14C212046FBF721FB68
:104BD000266304E03046FFF78DFE00E000247CB140
:104BE0000020CDE900ABCDE902403A4649464046B7
:104BF000089BFFF79FFC2046FFF7B0FB012501E073
:104C00004FF0FF35284609B0BDE8F08F0549096827
:104C100009B9012005E00449096809B9022000E04A
:104C20000020704774000020940000202DE9F0411E
:104C300000275748006800287ED156480068451C68
:104C4000544805608DB95448D0F800805348006836
:104C5000514908605148C0F8008051480068401C24
:104C60004F490860FFF70CFD00BF4E4800688542C1
:104C700076D300BF48480068006808B9012000E00A
:104C8000002020B14FF0FF304649086067E04248FD
:104C90000068C068C4686668B54202D241480660D0
:104CA0005DE06069D4E902128A60D4E902214A60B9
:104CB000211D42688A4201D1E1684160002262619F
:104CC0000168491E0160A06A98B1A06AD4E9071280
:104CD0008A60D4E907214A6004F1180142688A42D7
:104CE00001D1216A41600022A2620168491E01606F
:104CF00000BF94F82C10012088402B490968084314
:104D000029490860E16A01EB8101284A02EB81012F
:104D10004868A0608268E260211D826851608160FD
:104D2000E16A01EB8101214A02EB81026261E16AE1
:104D300001EB81011D4A00E022E052F82110491CDC
:104D4000E26A02EB8202194B43F822101849E06A2A
:104D50000968C96A88428DD901278BE700E000BF46
:104D600013480068C06A00EB8000104951F8200029
:104D7000012800D901270F48006800B1012704E08D
:104D80000D480068401C0C4908603846BDE8F081B9
:104D9000940000206C0000205C00002060000020D7
:104DA000800000208800002070000020A002002069
:104DB000580000207C0000207800002070B50024FE
:104DC0000026FFF775FD4B480068401E4949086002
:104DD0000846006800287DD147480068002879D03F
:104DE0005BE04648C068C468A06AD4E907128A60DC
:104DF000D4E907214A6004F1180142688A4201D1CE
:104E0000216A41600022A2620168491E0160606956
:104E1000D4E902128A60D4E902214A60211D426865
:104E20008A4201D1E1684160002262610168491E45
:104E3000016094F82C10012088403149096808432A
:104E40002F490860E16A01EB81012E4A02EB8101E2
:104E50004868A0608268E260211D826851608160BC
:104E6000E16A01EB8101274A02EB81026261E16A9A
:104E700001EB8101234A52F82110491CE26A02EB3E
:104E80008202204B43F822101F49E06A0968C96A70
:104E9000884202D301201D4908601848006808B9FB
:104EA000012000E0002000289BD00CB1FFF7E8FBB8
:104EB0001748056865B100BFFFF7B8FE10B10120C3
:104EC000124908606D1E002DF6D1002010490860BF
:104ED0000E4800E009E0006838B1012630070D49AE
:104EE0000860BFF34F8FBFF36F8FFFF7F3FC3046BF
:104EF00070BD0000940000206800002048050020DC
:104F000070000020A0020020580000207C0000203B
:104F10007800002004ED00E0010203030405060709
:104F20000809000000000000555555555555C53F6E
:104F30007D6FEB0312D6D4BF5544880E55C1C93FCF
:104F40003B8F68B52882A4BF88B20175E0EF493F66
:104F500009F7FD0DE13D023F4B2D8A1C273A03C0A6
:104F6000C88A599CE52A004059018D1B6C06E6BF92
:104F700082922EB1C5B8B33F4FBB610567ACDD3F30
:104F8000182D4454FB21E93F9BF681D20B73EF3F70
:104F9000182D4454FB21F93FE2652F227F2B7A3CE8
:104FA000075C143326A6813CBDCBF07A8807703CA1
:104FB000075C143326A6913CC4EB98999999C9BF14
:104FC000711623FEC671BCBF6D9A74AFF2B0B3BF49
:104FD0009AFDDE522DDEADBF2F6C6A2C44B4A2BF09
:104FE0000D5555555555D53FFF8300922449C23F75
:104FF0006E204CC5CD45B73F513DD0A0660DB13FA9
:10500000EB0D76244B7BA93F11DA22E33AAD903FBA
:1050100000000000000000003850000800000020E0
:1050200074010000000B0008985000087401002073
:10503000BC89000048390008011000101501020366
:105040000405060708090A0B0C0D0E0F2924290474
:105050002927380A020406083443101001050142CA
:1050600002231F1AAA014105140AD7A33C08094AC2
:105070006F12833A0C020B3F24E1BA801469F713D4
:10508000E085142018861B2050041A88041AC004D6
:085090001AF8040110000000F1
:0400000508000131BD
:00000001FF
