:020000040800F2
:10000000E8880020E1010008D91200080711000863
:10001000D5120008F70C0008D727000800000000E0
:10002000000000000000000000000000490100087E
:100030004F0D0008000000008D010008011F00089E
:10004000FB010008FB01000815200008FB01000867
:10005000FB010008FB010008FB010008FB01000890
:10006000FB010008FB010008FB010008FB01000880
:10007000FB010008FB010008FB010008FB01000870
:10008000FB010008FB010008FB010008FB01000860
:10009000FB010008FB010008FB0100084D0E0008F1
:1000A000FB010008FB010008FB010008FB01000840
:1000B000FB010008FB01000831210008FB010008DA
:1000C000FB010008FB010008FB010008FB01000820
:1000D000FB01000881250008FB010008FB01000866
:1000E000FB010008FB010008FB010008FB01000800
:1000F000FB010008FB010008FB010008FB010008F0
:10010000FB010008FB010008FB010008FB010008DF
:10011000FB010008FB010008FB010008FB010008CF
:10012000FB010008FB010008FB010008FB010008BF
:10013000DFF810D000F04EFC00480047F93100080D
:10014000AFF30080E8880020224B19680868B0E807
:10015000F00F80F30988BFF36F8F4FF0000080F33A
:1001600011884EF00D0E7047000000000648006830
:10017000006880F3088862B661B6BFF34F8FBFF3A3
:100180006F8F00DF00BF00BF08ED00E0EFF30980D4
:10019000BFF36F8F0F4B1A6820E9F00F106008B59E
:1001A0004FF0500080F31188BFF34F8FBFF36F8F74
:1001B00003F02CFC4FF0000080F31188BDE80840EC
:1001C00019680868B0E8F00F80F30988BFF36F8FF3
:1001D000704700BF38000020EFF305807047000033
:1001E0000648804706480047FEE7FEE7FEE7FEE7D1
:1001F000FEE7FEE7FEE7FEE7FEE7FEE7611F000819
:1002000031010008D2B201E000F8012B491EFBD2F7
:1002100070470022F6E710B513460A460446194611
:10022000FFF7F0FF204610BDF0B480EA0102D40FC2
:100230004200B2EB410F02D20246084611464A0084
:1002400042D0C30DDDB2C1F3C752AD1A202D35DA4D
:10025000C1F3160141F4000204B15242C5F1200677
:1002600002FA06F12A411044B3EBD05F23D0C4B1A7
:10027000012DA0EBC35009DCF0BC4FF0004202EAB4
:10028000C352DBB200F5000000F041BA400000F1BB
:10029000807000EBC350A0F1807040EAD17049003B
:1002A00009E0490841EAC071A0EBC35000F5000025
:1002B000400800EBC350F0BC00F020BA61420122BC
:1002C00002EB4101001BF6E7F0BC704781F00041F2
:1002D000AAE780F00040A7E780EA010210B502F02B
:1002E0000043400022D04A001FD0010E01EB1261F2
:1002F000C0F35600C2F3560240F4000042F400027C
:10030000A0FB022000047F39140400D0401C50EAF6
:10031000124001D44000491EC2B20C0604EBD010BA
:10032000401C4008802A02D003E0002010BD20F0CD
:100330000100002900DA0020184310BD30B480EA23
:10034000010202F0004530F0004221F0004013D0DD
:1003500090B1C30DD40DC2F31601C0F31600E41A18
:1003600041F4000140F400027D34914201D3641C49
:1003700000E04900002C02DA30BC002070474FF446
:1003800000000023914201D3891A034340084FEA39
:100390004101F7D151B1914202D14FF0004105E046
:1003A00002D24FF0010101E06FF0010103EBC450F4
:1003B000284430BC00F0A2B92DE9FE4F81EA0304C5
:1003C00004F0004421F0004100944FF0000B23F0B2
:1003D000004350EA01045ED052EA03045BD0C3F349
:1003E0000A54C1F30A552C44A4F2F3340194A0FB3F
:1003F0000254C1F3130141F48011C3F3130343F416
:10040000801301FB024400FB034E840A970A44EA6E
:10041000815447EA8357A4FB076802958D0A05FBC0
:1004200007854FEA932C04FB0C542705029D4FEAE5
:10043000065847EA1637B5EB08056EEB070C870E32
:10044000920E47EA811742EA8312A7FB0201B6EB3C
:100450000B0164EB00042B0D43EA0C335E1844EBF4
:100460001C50DA465146E7FB0201C5F313044FEA7C
:100470000B3343EA14534FEA0432019C43EA060368
:10048000A4F10C040294009CCDE900B400F07CF9C6
:1004900003B0BDE8F08F00200146F9E72DE9F04DEB
:1004A00081EA030404F0004B21F0004514464FF0AC
:1004B000000A23F0004150EA050220D054EA01026C
:1004C0001DD0C5F30A570246C5F31303C1F3130049
:1004D000C1F30A5640F4801543F48013A7EB0608D5
:1004E000101BD64608F2FD3873EB050002D308F165
:1004F000010801E092185B41B8F1000F03DA002017
:100500000146BDE8F08D00204FF480110646844678
:100510000EE0171B73EB050705D3121B63EB0503F6
:1005200006434CEA010C49084FEA300092185B413F
:1005300050EA0107EDD152EA030012D082EA04002A
:1005400083EA0501084305D0101BAB4106D2012206
:10055000002306E000224FF0004302E06FF00102AA
:1005600053101AEB06004CEB085110EB0A0041EB5C
:100570000B01BDE8F04D00F0F8B8C10F80EAE07063
:100580000844CA079623002100F0C1B89623002230
:10059000114600F0BCB800F0004220F00040C10D50
:1005A000C0F3160040F400007F2901DA00207047F4
:1005B000962903DCC1F19601C84001E096398840D4
:1005C000002AF4D04042704720F00040C10DC0F333
:1005D000160040F400007F2901DA002070479629B8
:1005E00003DCC1F19601C8407047963988407047D6
:1005F00000F0004230F000400AD0C10D01F56071FA
:10060000C0F3160042EA0151C20840071143704787
:1006100000200146704701F0004330B421F0004152
:1006200050EA010206D00A0DA2F56072C1F313016F
:10063000002A02DC30BC00207047440F44EAC104A9
:10064000C100E01830BC00EBC25000F057B830B524
:100650000B46014600202022012409E021FA02F580
:100660009D4205D303FA02F5491B04FA02F528441A
:10067000151EA2F10102F1DC30BD2DE9F05F054647
:10068000002092469B4688460646814640241BE051
:10069000284641464746224600F020F853465A462F
:1006A000C01A914110D311461846224600F0A4F911
:1006B0002D1A67EB01084F4622460120002100F069
:1006C0009BF917EB00094E41201EA4F10104DFDC69
:1006D000484631462A464346BDE8F09F202A04DBBF
:1006E000203A21FA02F00021704721FA02F3D040AB
:1006F000C2F1200291400843194670470029A8BF63
:100700007047401C490008BF20F00100704710B43A
:10071000B0FA80FC00FA0CF050EA010404BF10BCEF
:10072000704749B1CCF1200421FA04F411FA0CF11C
:1007300018BF012121430843A3EB0C01CB1D4FEA55
:1007400000614FEA102042BF002010BC704700EB50
:10075000C35010440029A4BF10BC7047401C49007E
:1007600008BF20F0010010BC704710B5141E73F1D3
:10077000000408DA401C41F1000192185B411A4361
:1007800001D120F0010010BD2DE9F04D92469B46AD
:1007900011B1B1FA81F202E0B0FA80F22032904653
:1007A00000F02AF904460F4640EA0A0041EA0B012C
:1007B00053465A46084313D0114653EA010019D054
:1007C000C8F140025046FFF789FF05460E465046E5
:1007D0005946424600F010F9084305D0012004E0D4
:1007E00020463946BDE8F08D0020054346EAE07614
:1007F0002C4337430A986305E40AA0EB0800002263
:10080000FD0A44EA47540A3002D500200146E9E7D0
:10081000010510196941DDE9084500196941BDE884
:10082000F04DA2E72DE9FE4F804681EA0300C00F9C
:100830000C46009021F0004123F00045B8EB020087
:10084000A94105D24046214690461C460B46024629
:1008500023F00040104347D0270DC7F30A00C3F32D
:100860000A510290401A019040286BDAC3F313003A
:1008700040F4801B0098924620B10023D2EB030A7B
:1008800063EB0B0B01985946C0F14002504600F053
:10089000B3F806460D4650465946019A00F0BBF89B
:1008A00010EB08006141002487EA115284EAE773E3
:1008B0001A4340D0009A62B3019A012A4FEA0752C4
:1008C00015DC001B61EB02014FF0004202EA075207
:1008D000CDE90042001C41F5801132462B46FFF75E
:1008E00053FF03B0BDE8F08F40462146F9E7001BF7
:1008F00061EB0201001C41F5801300185B412018D8
:10090000A2F5001747EB030140EAD570B6196D4117
:1009100011E06D084FEA360645EAC0754FEA075206
:10092000001B61EB0201001C41F5801149084FEAF0
:1009300030000019514132462B4603B0BDE8F04F5C
:10094000FFF713BF0098012240000023D0EB020202
:1009500063EBE073009821464FEAE074B8EB0000C7
:1009600061EB0401E9E783F000435BE781F00041BC
:1009700058E7C1F30A52C1F3130140F2FF3341F4C7
:1009800080119A4202DA00200146704740F2334358
:100990009A42A2F2334202DC5242FFF79FBE00F0BD
:1009A0002BB8000030B5041E71F1000404DB4FF0D9
:1009B0000044404264EB0101141E73F1000405DBA6
:1009C0001C464FF00043524263EB0403994208BFB8
:1009D000904230BD064C074D06E0E06840F0010350
:1009E00094E8070098471034AC42F6D3FFF7A4FB15
:1009F000483E0008683E0008202A04DB203A00FA3E
:100A000002F1002070479140C2F1200320FA03F365
:100A1000194390407047202A06DBCB17203A41FA51
:100A200002F043EAE07306E041FA02F3D040C2F17B
:100A300020029140084319467047000000B591B06C
:100A40000121042000F0ACFC0121480200F0A8FCC8
:100A50000121084600F084FC00208DF843003C2072
:100A6000ADF8400010A93E4800F0C0FA3D480090A3
:100A70003D48019000200290042003900020049043
:100A8000802005904000069080000790202008906C
:100A90000002099000200A906946344800F039F9B4
:100AA0000121324800F029F901208DF831000020A1
:100AB0000E904FF460200D9000200B9004208DF8D4
:100AC0003C0001208DF830000BA926484C3800F07E
:100AD00079F8012123484C3800F04AF80A2002F046
:100AE0003BFB20484C3800F0F1F800BF1D484C3863
:100AF00000F05EF80028F9D11A484C3800F0F6F8FA
:100B000000BF18484C3800F049F80028F9D10723F5
:100B10000122052113484C3800F07CF807230222FB
:100B2000114610484C3800F075F80723032211468F
:100B30000C484C3800F06EF807230422114609488F
:100B40004C3800F067F8012106484C3800F01BF8DB
:100B5000012104484C3800F0BEF811B000BD00007F
:100B6000000801404C2401402C00002008000240F5
:100B700021B1826842F00102826003E0826822F0C3
:100B800001028260704721B1826842F48072826003
:100B900003E0826822F48072826070470146002080
:100BA0008A6802F004020AB1012000E000207047C8
:100BB000014600208A6802F008020AB1012000E024
:100BC0000020704730B502460020002350680F4CCB
:100BD00020400D790C6844EA052420435060906859
:100BE0000B4C2040D1E902542C434D7944EA450492
:100BF00020439060D06A20F470000C7C641EE4B244
:100C0000234340EA0350D06230BD0000FFFEF0FFF6
:100C1000FDF7F1FFF0B504460D4600200021092D37
:100C200011DDE068A5F10A0606EB4607072606FA7D
:100C300007F18843A5F10A0606EB460603FA06F11A
:100C40000843E0600CE0206905EB4507072606FA3B
:100C500007F1884305EB450603FA06F108432061D6
:100C6000072A0FDA606B561E06EB86071F2606FA68
:100C700007F18843561E06EB860605FA06F108437F
:100C8000606322E00D2A0FDA206BD61F06EB860781
:100C90001F2606FA07F18843D61F06EB860605FADB
:100CA00006F10843206310E0E06AA2F10D0606EBAE
:100CB00086071F2606FA07F18843A2F10D0606EB08
:100CC000860605FA06F10843E062F0BD816841F04E
:100CD00008018160704721B1826842F4A0028260FD
:100CE00003E0826822F4A00282607047816841F0CC
:100CF00004018160704700BFFEE721B1026842F045
:100D00000102026004E002684FF6FE731A400260BE
:100D1000704710B50022026847F6F0739A430C6AD8
:100D20008B6823430C6923434C6923438C69234319
:100D3000CC6923434C6A23438C6A23431A430260E1
:100D4000CB6843600B6883604B68C36010BD70471D
:100D50002DE9F0470446204949781F4A127841EAB4
:100D6000022108B2FFF709FC8146FFF741FC074664
:100D700000221A4BFFF792FB0546FFF74CFC206060
:100D80001549C978144A927841EA022108B2FFF75E
:100D9000F4FB8146FFF72CFC074600220F4BFFF7C0
:100DA0007DFB0546FFF737FC60600B4949790A4A2D
:100DB000127941EA022108B2FFF7DFFB8146FFF713
:100DC00017FC07460022054BFFF768FB0546FFF7B7
:100DD00022FCA060BDE8F087A80000200000594078
:100DE0001FB50121084600F0DBFA48208DF80F00FE
:100DF0004FF48070ADF80C0003A9134800F0F6F82A
:100E00000821022000F0D2F84FF4807001900120F8
:100E10008DF80A0000208DF808000C208DF80900DC
:100E200001A800F079F817208DF8000001208DF856
:100E3000030006208DF8010000208DF802006846AE
:100E400000F04CFA1FBD00000010014010B54FF437
:100E5000807000F04DF8002835D0072000F020FF0A
:100E60001B4908700846007800F0200058B10F2098
:100E700000F0D0FF2021272000F0B6FFFF21E12065
:100E800000F0B2FF1FE01248007800F0400038B1D7
:100E9000104800F037FD4021272000F0A5FF12E0A8
:100EA0000B48007800F0100068B10E2000F0B2FF8F
:100EB0001021272000F098FFFF21E12000F094FF8F
:100EC00005A001F0E3FC4FF4807000F00BF810BDBA
:100ED0002A000020A80000204D41582054580D0A37
:100EE0000000000001490860704700001404014040
:100EF000014600200022074B1B6803EA0102054B54
:100F000014331B680B4013B10AB1012000E000202C
:100F10007047000000040140002123498279002A23
:100F20003AD00A46126803689A430B461A600A1DB3
:100F3000126803689A430B1D1A60027911440A680B
:100F400003681A430A60184A0832126803689A4311
:100F5000154B08331A601A1D126803689A43124B26
:100F60000C331A604279102A0ED11A1F12680368D6
:100F70001A430D4B08331A601A1D126803681A438E
:100F8000094B0C331A600DE00749427911440A6895
:100F900003681A430A6005E0027911440A6803688D
:100FA0009A430A60704700000004014030B50022F7
:100FB0008B071C0F0F2303FA04F20B4B8C1053F812
:100FC00024309343084C8D1044F8253023468C1070
:100FD00053F824308C07240F00FA04F42343024C06
:100FE0008D1044F8253030BD080001402DE9F04156
:100FF000024600250026002000230024002791F847
:1010000003C00CF00F0591F803C00CF0100CBCF1FC
:10101000000F03D091F802C04CEA050591F800C01A
:10102000BCF1000F31D0146800202BE04FF0010C10
:101030000CFA00F3B1F800C00CEA03069E4220D17E
:1010400083004FF00F0C0CFA03F7BC4305FA03FCC6
:101050004CEA040491F803C0BCF1280F06D14FF00C
:10106000010C0CFA00FCC2F814C00AE091F803C0AD
:10107000BCF1480F05D14FF0010C0CFA00FCC2F88E
:1010800010C0401C0828D1D31460B1F800C0BCF1D6
:10109000FF0F34DD546800202EE000F1080C4FF003
:1010A000010808FA0CF3B1F800C00CEA03069E42EE
:1010B00021D183004FF00F0C0CFA03F7BC4305FA63
:1010C00003FC4CEA040491F803C0BCF1280F05D1DD
:1010D00000F1080C08FA0CF8C2F8148091F803C06B
:1010E000BCF1480F07D100F1080C4FF0010808FAD5
:1010F0000CF8C2F81080401C0828CED35460BDE81C
:10110000F0814161704700BFFEE7000010B54FF469
:10111000E13001F063FB00F025F800F07DFF00F006
:101120006BFD00F0D3FDFFF75BFEFFF787FC00F0DF
:101130004FFA41F61F4140F2F31001F0F1F902A01D
:1011400001F0A4FB10BD0000486172645761726534
:1011500020496E69742046696E6973682E2E2E0DC3
:101160000A00000008B50121082000F019F920202C
:10117000ADF8000010208DF8030003208DF8020068
:1011800069460448FFF732FF20210248FFF7B9FF04
:1011900008BD0000000C01400EB522E06846FFF7D4
:1011A000D7FD00F0C9F90098FFF722FA044622465D
:1011B0000B460CA001F06AFB0198FFF719FA0446F0
:1011C00022460B460AA001F061FB0298FFF710FAD5
:1011D000044622460B460AA001F058FB052002F007
:1011E00053FBDBE7526F6C6C3A252E32660D0A001A
:1011F00050697463683A252E32660D0A00000000BB
:101200005961773A252E3266200D0A003048008851
:10121000B0F5FA6F02DD4FF4FA6001E02C48008867
:101220002B49088008464088B0F5FA6F02DD4FF47C
:10123000FA6001E026484088254948800846C08871
:10124000B0F5FA6F02DD4FF4FA6001E02048C08883
:101250001F49C88008468088B0F5FA6F02DD4FF458
:10126000FA6001E01A488088194988800846008899
:10127000B0F57A7F02DA4FF47A7001E01448008802
:101280001349088008464088B0F57A7F02DA4FF4A7
:101290007A7001E00E4840880D4948800846C088B1
:1012A000B0F57A7F02DA4FF47A7001E00848C0881E
:1012B0000749C88008468088B0F57A7F02DA4FF483
:1012C0007A7001E0024880880149888070470000F8
:1012D0007484002000BFFEE77047000070B5002155
:1012E00000230F22C47804B3154C246804F4E0648E
:1012F000C4F5E064210AC1F10403CA40447804FA49
:1013000003F184781440214309010E4C0678A1555D
:10131000047804F01F050124AC4005786D11AD0080
:1013200005F1E025C5F8004109E0047804F01F0547
:101330000124AC40044D0678761145F8264070BD76
:101340000CED00E000E400E080E100E00249014330
:10135000024A1160704700000000FA050CED00E041
:1013600029B1064A52690243044B5A6104E0034A18
:1013700052698243014B5A617047000000100240DD
:1013800029B1064AD2690243044BDA6104E0034AF8
:10139000D2698243014BDA617047000000100240BD
:1013A00029B1064A92690243044B9A6104E0034A58
:1013B00092698243014B9A6170470000001002401D
:1013C00030B500210022002400232D4D6D6805F06A
:1013D0000C0121B1042905D0082923D105E0294DAC
:1013E000056022E0274D05601FE0254D6D6805F47E
:1013F0007012234D6D6805F48034022505EB92428E
:101400001CB9214D554305600BE01D4D6D6805F479
:1014100000351DB11C4D5543056002E0194D554383
:10142000056002E0174D056000BF00BF144D6D68F8
:1014300005F0F0010909154D6B5C0568DD4045605C
:101440000F4D6D6805F4E061090A104D6B5C45684D
:10145000DD4085600A4D6D6805F46051C90A0B4D89
:101460006B5C4568DD40C560054D6D6805F4404125
:10147000890B074D6B5CC568B5FBF3F5056130BDA5
:101480000010024000127A0000093D000C0000200C
:101490001C00002070B524490888FFF777F805463E
:1014A0002249FEF719FF0446FFF78EF800F57A701F
:1014B0001F49098808441F4908801B494888FFF7CD
:1014C00065F805461949FEF707FF0446FFF77CF863
:1014D00000F57A701649498808441649488012492F
:1014E0008888FFF753F805461049FEF7F5FE0446D5
:1014F000FFF76AF800F57A700D49C98808440D496C
:10150000C8800949C888FFF741F805460749FEF732
:10151000E3FE0446FFF758F800F57A70044989881D
:1015200008440449888070BD2C0000205AF5793E9B
:10153000980000207484002010B500F047F9FFF7F0
:1015400065FE00F001F810BD2048008840F2D2513D
:10155000884209DD1D48008840F2E651884203DADE
:1015600040F2DC50194908801848408840F2D251B6
:10157000884209DD1548408840F2E651884203DA86
:1015800040F2DC50114948801048C08840F2D251E6
:10159000884209DD0D48C08840F2E651884203DAEE
:1015A00040F2DC500949C8800848808840F2D25196
:1015B000884209DD0548808840F2E651884203DA16
:1015C00040F2DC500149888070470000748400209C
:1015D0002DE9FF410020009001900290039000242B
:1015E00000BF19E0FFF756FF312C13DD2E490988A3
:1015F0000098084400902C494988019808440190BB
:101600002949C98802980844029027498988039883
:1016100008440390601CC4B2642CE3DB0098FEF71E
:10162000B5FF07462149FEF789FE06462049FEF729
:1016300050FE0546FEF7AFFF00B21E490880019834
:10164000FEF7A4FF07461949FEF778FE064618493B
:10165000FEF73FFE0546FEF79EFF00B215494880A3
:101660000298FEF793FF07461049FEF767FE06460D
:101670000F49FEF72EFE0546FEF78DFF00B20D491D
:10168000C8800398FEF782FF07460849FEF756FE1A
:1016900006460749FEF71DFE0546FEF77CFF00B231
:1016A00004498880BDE8FF8174840020000048421E
:1016B0000080BB449800002030B589B0202101A8EB
:1016C000FEF7A7FD00240025AA208DF80400AF2016
:1016D0008DF8050003208DF8060014208DF8070012
:1016E0003948008800128DF80800374800788DF8D6
:1016F00009003548408800128DF80A003248807889
:101700008DF80B003048808800128DF80C002E48B0
:1017100000798DF80D002C48C08800128DF80E005D
:10172000294880798DF80F002748008900128DF82C
:1017300010002548007A8DF81100234840890012D6
:101740008DF812002048807A8DF813001E48808999
:1017500000128DF814001C48007B8DF815001A4803
:10176000C08900128DF816001748807B8DF817008D
:101770001548008A00128DF818001348007C8DF877
:1017800019001148408A00128DF81A000E48807C1A
:101790008DF81B00042504E001A8405D0444681C8A
:1017A000C5B2182DF8DB200E8DF81C00200C8DF82A
:1017B0001D00200A8DF81E00E0B28DF81F0001A860
:1017C00000F0B8F809B030BD7484002010B5FFF700
:1017D00061FE46480168001D454A127830F8120043
:1017E000081A4249086008460068424909880844C6
:1017F0003E4908603F4801883C48001D3C4A127839
:1018000020F81210001F00680A21B0FBF1F03949DE
:10181000088039480168001D354A127830F81200F6
:10182000081A354908600846006832494988084462
:10183000314908602F4841882F48001D2C4A1278F2
:1018400020F81210001F00680A21B0FBF1F02949AE
:1018500048802A480168001D254A127830F8120095
:10186000081A26490860084600682249C9880844C1
:10187000224908601F48C1882048001D1C4A127870
:1018800020F81210001F00680A21B0FBF1F019497E
:10189000C8801B480168001D154A127830F81200F4
:1018A000081A1749086008460068124989880844E0
:1018B000134908600F4881881148001D0C4A1278AE
:1018C00020F81210001F00680A21B0FBF1F009494E
:1018D000888007480078401C054908700846007851
:1018E0000A2801DB0020087010BD00008884002059
:1018F000A100002074840020A0840020B88400206F
:10190000D084002010B50446002008490860202239
:101910002146612000F0A4F9FF21E22000F064FAE2
:1019200001200349C1F8A00110BD0000A00121421F
:101930000000214210B504460020104908607021C3
:10194000272000F051FA0E21202000F04DFA052248
:101950000B49302000F028FA05220A492A2000F01D
:1019600023FA20222146A02000F01EFA0120064979
:10197000C1F8A0010A2001F0EFFB10BDA001214237
:1019800020000020250000200000214200B587B083
:1019900001210820FFF704FD01218803FFF7F0FC77
:1019A00018208DF81B004FF42040ADF818000320DC
:1019B0008DF81A0006A91848FFF718FB04208DF8C7
:1019C0001B000003ADF8180006A91348FFF70EFB33
:1019D0001020ADF810000020ADF80C00ADF80A00A2
:1019E000ADF80800ADF812004FF40070ADF80E002D
:1019F0004FF48270ADF806000720ADF81400002007
:101A0000ADF8040001A9054800F040F801210348A1
:101A100000F022F807B000BD000C01400038004083
:101A200010B5044600BF02210A4800F021F8002842
:101A3000F9D02146074800F027F800BF01210548EA
:101A400000F016F80028F9D0024800F01AF8C0B2E9
:101A500010BD00000038004021B1028842F0400271
:101A6000028004E002884FF6BF731A40028070477C
:101A70000246002013890B400BB1012000E000203A
:101A800070470146888970478181704710B50022F0
:101A9000028802F441520B884C8823438C882343EC
:101AA000CC8823430C8923434C8923438C892343CB
:101AB000CC8923431A430280838B4FF2FF74234067
:101AC00083830B8A038210BD10B500F001F810BDAE
:101AD0000CB50020019000903348006840F480303D
:101AE0003149086000BF3048006800F400300090C1
:101AF0000198401C0190009818B90198B0F5A06FAA
:101B0000F1D12948006800F4003010B101200090A4
:101B100001E0002000900098012843D1234800688C
:101B200040F01000214908600846006820F00300DA
:101B300008600846006840F0020008601A484068E3
:101B4000194948600846406848600846406840F4C3
:101B5000806048600846406820F47C104860084671
:101B6000406840F4E81048600846006840F0807023
:101B7000086000BF0C48006800F000700028F9D031
:101B80000948406820F0030007494860084640685B
:101B900040F00200486000BF0348406800F00C00BD
:101BA0000828F9D10CBD00000010024000200240BE
:101BB00010B502E005A000F069FE00F0CFF80028A3
:101BC000F8D008A000F062FE10BD00005369323466
:101BD00072206E6F20636F6E6E656374696F6E0D39
:101BE0000A000000536932347220636F6E6E6563C1
:101BF00074696F6E0D0A000008B501211C20FFF703
:101C0000CFFB10208DF803000002ADF80000032088
:101C10008DF8020069460E48FFF7E8F910208DF8AC
:101C200003000001ADF8000003208DF802006946B2
:101C30000848FFF7DBF9FFF7A9FEFFF7B9FF01201E
:101C40000549086000200549C1F8A00108BD000051
:101C5000000C014000080140B081214200002142F7
:101C60002DE9F04107460D461646002400200B4999
:101C700008603846FFF7D4FE804600BF05E0FF202D
:101C8000FFF7CEFE2855601CC4B2B442F7D3012042
:101C9000024908604046BDE8F0810000B081214261
:101CA00070B504460020074908602046FFF7B8FEDB
:101CB000FF20FFF7B5FE054601200349C1F8B0013A
:101CC000284670BDB08121420080214210B500201D
:101CD0001E4908600321232000F086F805221C49D4
:101CE000302000F061F805221A492A2000F05CF843
:101CF000FF21242000F078F80121222000F074F860
:101D00000121212000F070F82021312000F06CF832
:101D1000052210492A2000F047F81E21252000F056
:101D200063F82721262000F05FF80E2000F072F8FB
:101D3000FF21E12000F058F8FF21E22000F054F8E4
:101D400001200549C1F8A00110BD0000A0012142F9
:101D50002000002025000020000021421CB510A119
:101D600003C9CDE9000105226946302000F01CF8C6
:101D7000052269461020FFF773FF002406E01DF8D6
:101D80000400A52800D003E0601CC4B2052CF6DBDB
:101D900000BF052C01D000201CBD0120FCE7000085
:101DA000A5A5A5A5A50000002DE9F04107460C4614
:101DB0001546002600200B4908603846FFF730FE24
:101DC000804600BF05E02078FFF72AFE641C701CE7
:101DD000C6B2AE42F7DB0120024908604046BDE8CA
:101DE000F0810000B081214270B505460C4600200C
:101DF000064908602846FFF713FE2046FFF710FE4D
:101E000001200349C1F8B00170BD0000B08121423A
:101E10000080214210B504460E2C0FD1002011493C
:101E200008600E212020FFF7DFFF7E212720FFF72B
:101E3000DBFF01200C49C1F8A00111E00020094995
:101E400008600F212020FFF7CFFF7E212720FFF71A
:101E5000CBFF01200449C1F8A001C82001F07CF9A2
:101E600010BD0000A0012142000021421CB5044623
:101E700001F0B6FC0E480068022100230A02CDE9F9
:101E800000100CA10D4801F025FE0D48006803214B
:101E900000234FF48062CDE900100AA10D4801F043
:101EA00019FE002001F00AFD01F0ACFC1CBD000091
:101EB000040000205461736B31000000012500080C
:101EC000080000204D5055363035305F5461736B3B
:101ED0000000000099110008042808D14FF0E0210B
:101EE000096941F004014FF0E022116107E04FF071
:101EF000E021096921F004014FF0E02211617047EF
:101F000010B501F01BFE012801D001F0C9FD10BD84
:101F100070B5044600204FF0E0210861401FFFF734
:101F2000DBFFE11704EB5171C1F3C7010B4A1170DC
:101F3000E11704EB5171CD104FF47A7045434FF027
:101F4000E020006940F002004FF0E02108610846FF
:101F50004561006940F00100086170BD3400002057
:101F600010B51348006840F00100114908600846A8
:101F70004068104908400E494860084600680E490C
:101F800008400B4908600846006820F4802008607B
:101F90000846406820F4FE0048604FF41F00886047
:101FA000FFF792FD4FF000600449086010BD00008B
:101FB000001002400000FFF8FFFFF6FE08ED00E011
:101FC0000020124908600846006840F4803008602C
:101FD00000BF0E48006800F400300028F9D000204F
:101FE0000A4948600846406809490843074948606B
:101FF0000846006840F08070086000BF03484068F1
:1020000000F00C000828F9D17047000000100240D1
:1020100002841D007047000000B589B001210C202A
:10202000FFF7BEF901210220FFF7AAF918208DF869
:102030002300C020ADF8200003208DF8220008A95D
:102040003848FEF7D3FF18208DF823000320ADF8A1
:1020500020008DF8220008A93348FEF7C7FF0020B2
:10206000ADF81A00ADF8160040F2E730ADF81800F0
:102070000220ADF8140005A92C4800F0EFF960200B
:10208000ADF804000120ADF806000020ADF80A000C
:10209000ADF80C0001A9254800F084F80821234878
:1020A00000F0CCF86020ADF804000120ADF8060087
:1020B0000020ADF80A00ADF80C0001A91B4800F0A3
:1020C000C7F80821194800F015F96020ADF80400A0
:1020D0000120ADF806000020ADF80A00ADF80C00B4
:1020E00001A9124800F014F90821104800F060F925
:1020F0006020ADF804000120ADF806000020ADF826
:102100000A00ADF80C0001A9084800F05BF90821AD
:10211000064800F095F90121044800F01CF809B0C8
:1021200000BD000000080140000C01400004004018
:1021300010B50121054800F01AF808B1FFF7BCFA04
:102140000121024800F004F810BD00000008004022
:10215000CA430282704721B1028842F00102028024
:1021600004E002884FF6FE731A400280704730B5D3
:102170000246002000230024158A05EA0103958900
:1021800005EA010413B10CB1012000E0002030BDCC
:102190001AB183890B43838102E083898B43838156
:1021A0007047000070B5002400220023058C4FF614
:1021B000FE7635400584028C8388048B4FF68F753C
:1021C0002C40B51E2C400D882C43751E2A400D89CD
:1021D0002A434D882A43144DA8420BD0134DA842E0
:1021E00008D0134DA84205D0124DA84202D0124D7E
:1021F000A84213D14FF6F7752A404D892A434FF66E
:10220000FB752A408D882A434FF6FF652B404FF619
:10221000FF552B408D892B43CD892B43838004832D
:10222000CD888586028470BD002C014000340140B9
:102230000040014000440140004801400A4600219E
:10224000018B4FF6F773194011430183704700006B
:1022500070B5002400220023058C4FF6EF76354040
:102260000584028C8388048B48F6FF752C404FF65A
:10227000FF452C400D884FF6FF7606EA05252C43D6
:102280004FF6DF752A400D8906EA05152A434D8869
:1022900006EA05152A43154DA84202D0144DA8425E
:1022A0001DD14FF67F752A404D894FF6FF7606EA1D
:1022B00005152A434FF6BF752A408D8806EA051595
:1022C0002A434FF6FF352B404FF2FF752B408D8987
:1022D00006EA85052B43CD8906EA85052B438380D5
:1022E0000483CD880587028470BD0000002C014066
:1022F000003401400A460021018B4FF2FF73194060
:102300004FF6FF7303EA022319430183704700006D
:1023100070B5002400220023058C4FF6FF6635407F
:102320000584028C8388848B4FF68F752C404FF682
:10233000FC752C400D882C434FF6FF552A400D8923
:102340004FF6FF7606EA05252A434D8806EA05255D
:102350002A43154DA84202D0144DA8421DD14FF278
:10236000FF752A404D894FF6FF7606EA05252A4378
:102370004FF6FF352A408D8806EA05252A434EF69A
:10238000FF752B404DF6FF752B408D8906EA05152C
:102390002B43CD8906EA05152B4383808483CD88A2
:1023A0008587028470BD0000002C0140003401408C
:1023B0000A460021818B4FF6F77319401143818340
:1023C0007047000070B5002200230024058C4EF6F3
:1023D000FF7635400584038C8488828B48F6FF7530
:1023E0002A404FF6FF452A400D884FF6FF7606EA51
:1023F00005252A434DF6FF752B400D8906EA053564
:102400002B434D8806EA05352B430B4DA84202D0DD
:102410000A4DA84208D14BF6FF752C408D894FF626
:10242000FF7606EA85152C4384808283CD88A0F848
:102430004050038470BD0000002C01400034014076
:102440000A460021818B4FF2FF7319404FF6FF734C
:1024500003EA0223194381837047000000220288A7
:102460001D4B98420ED01D4B98420BD0B0F1804FBF
:1024700008D01B4B984205D01A4B984202D01A4BF9
:10248000984204D14FF68F731A404B881A43174B6A
:10249000984207D0164B984204D04FF6FF431A409B
:1024A000CB881A4302808B8883850B8803850A4B6F
:1024B00098420BD0094B984208D00E4B984205D059
:1024C0000D4B984202D00D4B984201D10B7A0386F6
:1024D0000123838270470000002C0140003401403A
:1024E0000004004000080040000C004000100040C4
:1024F00000140040004001400044014000480140F9
:1025000008E005480068C0430449C1F89401C820A8
:1025100001F0BAF9F5E700009481214200802142E0
:102520007FB505460C4601210420FEF729FF002057
:10253000ADF80A00ADF80600ADF80850ADF804405B
:1025400001A90E48FFF78AFF1E208DF80000012028
:102550008DF8030007208DF8010000208DF802009F
:102560006846FEF7BBFE012211460448FFF710FE45
:1025700001210248FFF7EFFD7FBD00000008004089
:1025800010B540F225511D4800F060F810B31B480B
:1025900000F018F9C4B21A48008800F40040C8B925
:1025A0001748008800F4804060B10A2C03D0002056
:1025B0001349088020E01248008840F40040104988
:1025C000088019E00D2C06D10D48008840F48040A9
:1025D0000B49088010E00A480088C0F30D00094943
:1025E0000C5407480088401C0549088008460088AC
:1025F000C72801DD0020088010BD00000038014020
:1026000036000020C800002001F40072B2F5007FFF
:1026100000D100BFCA430280704721B1828942F4D1
:102620000052828104E082894DF6FF731A40828154
:10263000704702460020B1F5007F00D100BF13882B
:102640000B400BB1012000E00020704770B502463E
:10265000002400230025002040F66A16B14200D174
:1026600000BFC1F3421501F01F03012606FA03F370
:10267000012D02D19689334006E0022D02D1168A3F
:10268000334001E0968A33400C12012606FA04F426
:102690001688344013B10CB1012000E0002070BD59
:1026A000F0B50346002400260025002040F66A17F6
:1026B000B94200D100BF1846C1F3421401F01F0611
:1026C000012707FA06F5012C01D10C3004E0022C99
:1026D00001D1103000E014301AB107682F430760B1
:1026E00002E00768AF430760F0BD00002DE9F04746
:1026F00086B005460E460024A24600BFA14600272C
:10270000B08900B100BF2F462C8A4CF6FF70044000
:10271000F08804432C82AC894EF6F3100440B08854
:1027200031890843718908430443AC81AC8A4FF670
:10273000FF400440B0890443AC8201A8FEF740FE8C
:102740001F48874202D1DDF810A001E0DDF80CA09F
:10275000A88900F4004040B10AEBCA0000EB0A105F
:1027600031684900B0FBF1F807E00AEBCA0000EB62
:102770000A1031688900B0FBF1F86420B8FBF0F072
:1027800004012009642101FB1089A88900F400409C
:1027900040B1322000EBC900B0FBF1F000F00700BF
:1027A000044308E0322000EB09106421B0FBF1F093
:1027B00000F00F0004432C8106B0BDE8F087000054
:1027C0000038014001468888C0F308007047C1F313
:1027D00008028280704700BFFEE7000010B586B097
:1027E000044601210420FEF7DBFD01218803FEF7EA
:1027F000D7FD4FF40070ADF8140003208DF81600DB
:1028000018208DF8170005A91E48FEF7EFFB4FF4BE
:102810008060ADF8140004208DF8170005A9194850
:10282000FEF7E4FB01940020ADF80800ADF80A00C3
:10283000ADF80C00ADF810000C20ADF80E0001A9A9
:102840001148FFF753FF01210F48FFF7E6FE402133
:102850000D48FFF7D9FE012240F225510A48FFF743
:102860001FFF25208DF8000003208DF801008DF852
:10287000020001208DF803006846FEF72FFD06B028
:1028800010BD000000080140003801400FB4054BA6
:1028900010B503A9044A029800F0DAF810BC5DF8FC
:1028A00014FB0000A1310008A400002002E008C8C9
:1028B000121F08C1002AFAD170477047002001E0BA
:1028C00001C1121F002AFBD1704700002DE9FF5FF4
:1028D00082B00021DDE90430020DDDF840B0034391
:1028E00018D044F61050A2F2FF324243151411984A
:1028F00001281FD0A5EB0B00401C5FEA000A4FF037
:1029000000064E4FDFF83891B046504615D5CAF153
:10291000000413E0119801244AA3012801D16FEAB1
:102920000B010298119AC0E90031C0E9024206B0D9
:10293000BDE8F09FCBF10000DFE704460021404AEC
:10294000491842EB0450CDE9001012E0E00707D02F
:1029500032463B4640464946FDF72EFD80468946B5
:1029600032463B4610461946FDF726FD06460F4601
:102970006410002CEAD1DDE90401DDE90023BAF19D
:10298000000F06DAFDF718FD42464B46FDF714FD31
:1029900005E0FDF783FD42464B46FDF77FFD04460B
:1029A0000E460022284BFDF7FDFF03D84FF0FF3005
:1029B000014607E00022254B20463146FDF732FF55
:1029C000FDF7D7FF102409E0002C0ADB0A220023C0
:1029D000FDF753FE039B30321A55641E50EA010284
:1029E000F2D1641C039AC4F111031444119A012A10
:1029F00003D0012208430DD10AE0084304D000208F
:102A00004FF0110B119072E7A3EB0B056D1E0DE05B
:102A10005B4504DD4FF0000205F1010504E003DA37
:102A20004FF00002A5F10105002AECD0029811999F
:102A3000C0E90231C0E9004579E700000000144018
:102A40000000F03F300000000000F0430000E03FD5
:102A50002DE9FF4F95B09A46884606460025EEE1DF
:102A6000252877D100242746F94A0121039400E064
:102A7000044316F8013F203B01FA03F01042F7D15E
:102A800030782A2811D06FF02F033078A0F130026F
:102A9000092A16D8039A44F0020402EB820203EBDF
:102AA00042021044761C0390EFE758F8042B03927F
:102AB000002A03DA504244F40054039044F0020424
:102AC000761C30782E2816D116F8010F44F0040435
:102AD0002A280DD06FF02F023078A0F13003092B97
:102AE00009D807EB870302EB4303C718761CF3E70B
:102AF00058F8047B761C30786C280FD006DC4C2804
:102B000017D068280DD06A2814D104E0742810D09A
:102B10007A280FD10DE044F400140AE044F4801444
:102B200001E044F440147278824202D104F580142A
:102B3000761C761C307866280BD013DC582877D0AA
:102B400009DC002875D04528F6D04628F4D047285F
:102B50001AD193E118E0632835D0642879D065282C
:102B600012D18BE1702873D008DC6728F1D0692876
:102B70006FD06E280DD06F2806D1ACE073282CD012
:102B8000752874D0782853D05246179990476D1CF9
:102B900054E1C4F30250022809D003280DD0D8F81C
:102BA000001004280DD00D6008F1040846E1D8F8A3
:102BB0000010EA17C1E90052F6E7D8F800100D80BE
:102BC000F2E70D70F0E718F8041B8DF800100020F4
:102BD0008DF80100EB46012003E058F804BB4FF0EC
:102BE000FF3061074FF0000102D40DE009F101014F
:102BF0008946B9420FDA8145F8DB1BF80910002934
:102C0000F4D108E009F1010189468142FADB1BF8A1
:102C100009100029F6D103985346A0EB0907214675
:102C20003846179A00F080FA284400EB090507E0BF
:102C300044E008E10DE01BF8010B5246179990475C
:102C4000B9F10109F7D2534621463846179AF2E006
:102C500039E00A21C4F302524FF0000B0091022A1E
:102C600006D058F8040BC117032A09D00AE023E064
:102C700008F1070020F00702F2E80201904605E0A3
:102C800000B2C117042A01D140B2C117002906DAE7
:102C90000A460021404261EB02012D2202E022059A
:102CA00004D52B228DF80420012203E0E20701D095
:102CB0002022F7E7914657E00A2100E010214FF06B
:102CC000000B00910BE010214FF0000B44F00404C6
:102CD0000827009103E008204FF0000B0090C4F398
:102CE0000252022A05D058F8040B0021032A08D00A
:102CF00008E008F1070020F00702F2E80201904620
:102D000003E080B2042A00D1C0B24FF000092207CC
:102D10002AD53278702A07D0DDF800C08CF0100C6C
:102D20005CEA0B0C05D00EE040228DF80420012255
:102D300008E050EA010306D030238DF804308DF806
:102D4000052002229146009B83F0080353EA0B03FF
:102D50000AD150EA010201D1620705D530228DF86F
:102D600004204FF001097F1E3278582A04D039A27E
:102D70000C920CAA02920BE03BA2F9E75B46009A88
:102D8000FDF77BFC0C9B9B5C029A521E0292137017
:102D900050EA0102F2D1029804A9081A00F1200BAE
:102DA000600702D524F4803400E001275F4502DD8E
:102DB000A7EB0B0000E0002000EB0B010090039854
:102DC0004944401A0390E00306D453462146179A1B
:102DD000039800F0A9F90544002706E001A852462F
:102DE000C05D179990476D1C7F1C4F45F6DBE003D3
:102DF0000CD553462146179A039800F095F90544DF
:102E000004E030205246179990476D1C0099481EE7
:102E100000900029F5DC08E00298029952460078FB
:102E2000491C0291179990476D1CBBF10001ABF151
:102E3000010BF1DC5BE100F065F90544761C3078AC
:102E400000287FF40DAE19B02846BDE8F08F0000D1
:102E50000928010030313233343536373839616270
:102E60006364656600000000303132333435363734
:102E7000383941424344454600000000600700D411
:102E8000062708F1070020F00700F0E8022380463B
:102E900003F0004C5FEA0C0001D097A009E0200588
:102EA00001D596A005E0E00701D095A001E0AFF2C2
:102EB0004C001390307823F0004365280CD006DCDA
:102EC000452809D046281DD047287FD13BE06628F9
:102ED00018D067287AD136E00021112F01DB1120AC
:102EE00000E0781CCDE9000104A90CA8FFF7EEFC76
:102EF000DDE90D010C9A4FF0000B07F1010910926A
:102F000000914EE04FF000400097CDE9011004A978
:102F10000CA8FFF7DBFCDDE90D020C9B0F994FF0CD
:102F2000000B91461093009211B9791C00EB010936
:102F3000B7EB090003D4C0F1FF3B07F10109A9EB8E
:102F40000700019042E0012F00DA01270021112F34
:102F500001DD112000E03846CDE9000104A90CA8EC
:102F6000FFF7B4FCDDE90D010C9A00914FF0000B66
:102F7000B946109221070FD4009A4A4503DA9146C8
:102F800001E0A9F10109B9F1010F05DD109AA9F1DC
:102F90000101515C3029F4D0B84202DA10F1040F7B
:102FA00003DA0121CDE9011010E0002803DC83449D
:102FB000A9EB000102E0411C494500DD8946A0EB78
:102FC0000B00401C01904FF000400290200705D4F8
:102FD0000198484502DB4FF0FF30019000208DF84A
:102FE0004B0002980DF14B07B0F1004F25D00220A5
:102FF0000C902B200D90029800280CDA4042029091
:103000002D200D9007E00A210298FDF720FB3031BA
:10301000029007F8011D0C99481E0C900029F2DC63
:1030200002980028EFD1791E0D980870307800F0D2
:10303000200040F0450007F8020D11A8C01BC01D7C
:1030400002901398007800B1012000EB090101986B
:1030500001EBE071029801440398401A401E03906E
:10306000E00306D453462146179A039800F05CF813
:1030700005441398007818B15246179990476D1C73
:10308000E00323D553462146179A039800F04CF8E5
:1030900005441BE0BBF1000F07DB0098584504DD39
:1030A0001098179910F80B0001E01799302052463C
:1030B000904701980BF1010B401E05F101050190AD
:1030C00004D12E205246179990476D1CB9F100018A
:1030D000A9F10109DEDC05E017F8010B524617994A
:1030E00090476D1C0299481E02900029F4DC53465B
:1030F0002146179A03989EE62D0000002B00000041
:10310000200000002DE9F041044600251E46174628
:10311000880404D405E039462020B0476D1C641EA5
:10312000F9D52846BDE8F0812DE9F0410446002597
:103130001E469046C80301D5302700E020278804AA
:1031400004D505E041463846B0476D1C641EF9D5EC
:103150002846BDE8F081000070B5034600224FF01C
:10316000E02675690D4E367803FB06F44FF0E02635
:10317000B16910E04FF0E026B06988420BD0884278
:1031800002D20E1A324402E02E1A0E443244014694
:10319000A24200D300E0EDE700BF70BD3400002084
:1031A00070B504460D46E1B20548FFF710FB00BFBD
:1031B00080210348FFF73DFA0028F9D0204670BD72
:1031C000003801401CB50748006801210023802217
:1031D000CDE9001004A1074800F07CFC00F0D8FB0A
:1031E0001CBD00000000002053746172745F5461C4
:1031F000736B00006D1E000810B5FEF7E1FE4FF482
:103200004070FEF7A3F84820FEF782FEFDF77EFF30
:10321000FFF7D8FF002010BD2DE9F04105460E460E
:103220002648076826480068001D00F08FFA50B94C
:103230002348006890F82C10012088402149096833
:10324000814320480160681CD8B9D6B11E4948683E
:103250001B49096888601A4982680968CA60184968
:103260000968091D8268516015490968091D816056
:10327000154A134909684A6111460968491C1160D9
:103280001AE07C190E4800684460BC4207D20C4822
:103290000168091D0D48006800F07CFA0CE0084840
:1032A0000168091D0A48006800F074FA09480068BE
:1032B000844201D207480460BDE8F0814C00002040
:1032C0003800002050000020600400204000002052
:1032D0003C0000206800002010B5044600F080FA91
:1032E0002F480068401C2E4908602E48006840B9ED
:1032F0002C4804600846006801280DD100F016F93A
:103300000AE02948006838B926480068C06AE16ABE
:10331000884201D82348046024480068401C23499F
:10332000086094F82C10012088402149096808435E
:103330001F490860E16A01EB81011E4A02EB81012D
:103340004868A0608268E260211D826851608160E7
:10335000E16A01EB8101174A02EB81026261E16AD5
:1033600001EB8101134A52F82110491CE26A02EB79
:103370008202104B43F8221000F044FA0A48006819
:1033800068B108480068C06AE16A884207D24FF015
:10339000805009490860BFF34F8FBFF36F8F10BD96
:1033A0004800002038000020540000206400002065
:1033B000500000209001002004ED00E010B516E060
:1033C00000F00EFA0C48C068C468201D00F0BEF979
:1033D0000A480068401E0949086009480068401E04
:1033E0000749086000F00EFA204600F00BF8044888
:1033F00000680028E4D110BD4C04002048000020E3
:103400004400002010B50446206B00F00BFA204663
:1034100000F008FA10BD000030B54FF40043154825
:1034200000F007042CB1C01D20F00700114C041B54
:103430001B1B0246104C226000240F4D6C60D018FC
:10344000083820F007000D4C206000240B4D2D683B
:103450006C600A4D2D682C601146441A4C60074C74
:1034600024680C60064D4C682C60064D4C682C603E
:1034700030BD00007404002078000020800000208F
:10348000880000208400002000BFFFF797FF064857
:1034900000680128F9D94FF0805004490860BFF353
:1034A0004F8FBFF36F8FF0E79001002004ED00E035
:1034B0002DE9FF5F80460E469146DDE90E7A109CAD
:1034C000A9F10100216B01EB800B2BF0070B7EB102
:1034D000002507E0715D04F134004155705D00B9CD
:1034E00002E06D1C102DF5D300BF002143200155D3
:1034F000202F00D31F27E762201D00F048F904F1B8
:10350000180000F044F92461C7F12000A061646252
:1035100041465846039A00F007F92060BAF1000FBF
:1035200001D0CAF80040BDE8FF9F000010B500249C
:1035300007E004EB84010F4A02EB810000F01AF966
:10354000641C202CF5D30C4800F014F90B4800F053
:1035500011F90B4800F00EF90A4800F00BF90A487F
:1035600000F008F90448094908600448084908605F
:1035700010BD000090010020100400202404002051
:10358000380400204C040020600400203C0000208F
:103590004000002010B50146164800E000680368AE
:1035A0008B42FBD30246436813448B4204D14368E9
:1035B0004C682344436001460A464B681344046840
:1035C000A34211D10C4C03682468A34208D04B6875
:1035D0000468646823444B6003681B680B6005E063
:1035E000054B1B680B6001E003680B60884200D04C
:1035F000016010BD780000208000002009480068AC
:10360000006808B9012000E0002020B14FF0FF3031
:103610000549086005E003480068C0680068024981
:10362000086070473C0000206800002000BF502068
:1036300080F31188BFF34F8FBFF36F8F00BF00BFC0
:10364000FEE700002DE9F04705464FF0000900F0C5
:10365000D5F93048006808B9FFF7DEFE75B105F00E
:103660000700C0F11008C8F1FF30A84201D20120C4
:1036700000E0002008B9454400E00025012000EBEF
:10368000E570002841D0002D3FD0234800688542D6
:103690003BD8224E3046046801E026462468606824
:1036A000A84202D220680028F7D11A480068844254
:1036B0002BD0306800F10809206830606068401B3A
:1036C000102807D967196068401B78606560384624
:1036D000FFF760FF104960680968081A0E49086022
:1036E000084600680E490968884203D20A48006803
:1036F0000B490860606840F0004060600020206076
:1037000008480068401C0749086000F0EFFA484686
:10371000BDE8F087800000208400002078000020B1
:10372000880000208C000020001F4FF08073036091
:10373000001F21F001030360001F034B03601438D6
:1037400002602038704700002D36000801460A69E3
:10375000D1E901309860D1E901035860506888428E
:1037600001D188685060002008611068401E106018
:103770001068704700F1080141604FF0FF3181602F
:1037800000F10801C1600161002101607047002162
:103790000161704710B502460B685C1C0CB91069DA
:1037A00007E002F1080000E04068446824689C4299
:1037B000FAD944684C604C68A160886041600A6135
:1037C0001468641C146010BD42684A6093688B6082
:1037D000936859609160086103685B1C03607047DF
:1037E00000BF502080F31188BFF34F8FBFF36F8F5E
:1037F00000BF03480068401C014908607047000092
:103800009400002006480068401E054908600846EC
:10381000006820B9002080F3118800BF00BF704706
:103820009400002070B506463546E6B1083D2C46AA
:103830006068C00FB8B12068A8B9606820F0004087
:10384000606000F0DBF808496068096808440649D0
:1038500008602046FFF79EFE04480068401C0349AC
:10386000086000F043FA70BD840000209000002042
:1038700000204FF0E021086188610248486107207C
:10388000086170473F19010070B50446002544B136
:1038900000F0B4F800212046FFF7BEFC00F026FA45
:1038A00005463DB94FF0805003490860BFF34F8F84
:1038B000BFF36F8F70BD000004ED00E070B50546EA
:1038C000FFF78EFF15B92948006800E02846044636
:1038D000201DFFF73BFF78B9E06A00EB8000244928
:1038E00051F8200040B994F82C100120884021495B
:1038F000096881431F480160A06A18B104F11800EB
:10390000FFF724FF1C480068401C1B49086017484B
:103910000068844209D1211D1848FFF755FF184857
:103920000068401C1649086006E016480068401E02
:1039300014490860FFF762FEFFF764FF0B48006858
:10394000844202D02046FFF75DFD0F48006858B161
:1039500006480068844207D14FF080500B49086048
:10396000BFF34F8FBFF36F8F70BD00003800002092
:103970009001002050000020640000204C04002032
:1039800044000020480000205400002004ED00E026
:103990001CB5124800210B468022CDE9001010A171
:1039A000114800F097F80446012C14D100BF5020B4
:1039B00080F31188BFF34F8FBFF36F8F00BF4FF0BD
:1039C000FF300A49086001200949086000200949C0
:1039D000086000F04BF8084800681CBD6C0000202F
:1039E00049444C450000000089340008680000206C
:1039F000540000204C0000207000002002480068A5
:103A0000401C01490860704774000020124800689B
:103A100018B10120114908601DE000200F4908601D
:103A20000F480068B0FA80F0C0F11F0101EB81027D
:103A30000C4B03EB820042685268426000F10802BE
:103A40004368934202D14268526842604268D26839
:103A5000054B1A6000BF7047740000205C00002016
:103A600050000020900100203800002010B50A48C6
:103A7000006840F47000084908600846006840F09B
:103A800070400860FFF7F4FE002004490860FCF76E
:103A90006DFB002010BD000020ED00E09400002030
:103AA00010B500BF502080F31188BFF34F8FBFF3D4
:103AB0006F8F00BF00F052F818B14FF080500449EA
:103AC000086000BF002080F3118800BF10BD000017
:103AD00004ED00E02DE9FF4F85B08046894617468A
:103AE000DDE912ABB800FFF7ADFD064676B14C201C
:103AF000FFF7A8FD04462CB14C212046FCF789FBBA
:103B0000266304E03046FFF78DFE00E000247CB120
:103B10000020CDE900ABCDE902403A464946404697
:103B2000089BFFF7C5FC2046FFF7D6FB012501E007
:103B30004FF0FF35284609B0BDE8F08F0549096808
:103B400009B9012005E00449096809B9022000E02B
:103B50000020704754000020740000202DE9F0413F
:103B600000275748006800287ED156480068451C49
:103B7000544805608DB95448D0F800805348006817
:103B8000514908605148C0F8008051480068401C05
:103B90004F490860FFF732FD00BF4E48006885427C
:103BA00076D300BF48480068006808B9012000E0EB
:103BB000002020B14FF0FF304649086067E04248DE
:103BC0000068C068C4686668B54202D241480660B1
:103BD0005DE06069D4E902128A60D4E902214A609A
:103BE000211D42688A4201D1E16841600022626180
:103BF0000168491E0160A06A98B1A06AD4E9071261
:103C00008A60D4E907214A6004F1180142688A42B7
:103C100001D1216A41600022A2620168491E01604F
:103C200000BF94F82C10012088402B4909680843F4
:103C300029490860E16A01EB8101284A02EB810110
:103C40004868A0608268E260211D826851608160DE
:103C5000E16A01EB8101214A02EB81026261E16AC2
:103C600001EB81011D4A00E022E052F82110491CBD
:103C7000E26A02EB8202194B43F822101849E06A0B
:103C80000968C96A88428DD901278BE700E000BF27
:103C900013480068C06A00EB8000104951F820000A
:103CA000012800D901270F48006800B1012704E06E
:103CB0000D480068401C0C4908603846BDE8F0819A
:103CC000740000204C0000203C0000204000002038
:103CD00060000020680000205000002090010020BB
:103CE000380000205C0000205800002070B500243F
:103CF0000026FFF775FD4B480068401E49490860E3
:103D00000846006800287DD147480068002879D01F
:103D10005BE04648C068C468A06AD4E907128A60BC
:103D2000D4E907214A6004F1180142688A4201D1AE
:103D3000216A41600022A2620168491E0160606937
:103D4000D4E902128A60D4E902214A60211D426846
:103D50008A4201D1E1684160002262610168491E26
:103D6000016094F82C10012088403149096808430B
:103D70002F490860E16A01EB81012E4A02EB8101C3
:103D80004868A0608268E260211D8268516081609D
:103D9000E16A01EB8101274A02EB81026261E16A7B
:103DA00001EB8101234A52F82110491CE26A02EB1F
:103DB0008202204B43F822101F49E06A0968C96A51
:103DC000884202D301201D4908601848006808B9DC
:103DD000012000E0002000289BD00CB1FFF70EFC72
:103DE0001748056865B100BFFFF7B8FE10B10120A4
:103DF000124908606D1E002DF6D1002010490860A0
:103E00000E4800E009E0006838B1012630070D498E
:103E10000860BFF34F8FBFF36F8FFFF7F3FC30469F
:103E200070BD00007400002048000020380400200D
:103E30005000002090010020380000205C0000208D
:103E40005800002004ED00E0683E0008000000205B
:103E5000A8000000AC280008103F0008A8000020BF
:103E600040880000BC28000800000000000000009E
:103E7000000000000000000001020304010203042E
:103E800006070809020406083443101001344310E1
:103E90001001000000000000000000000000000011
:103EA0000000000000000000000000000000000012
:103EB0000000000000000000000000000000000002
:103EC00000000000000000000000000000000000F2
:103ED00000000000000000001F00000000000000C3
:103EE00000000000000000000000000000000000D2
:103EF000000000000000000000000000AAAAAAAA1A
:103F000000000000000000000000000000000000B1
:0400000508000131BD
:00000001FF
